:020000040800F2
:1000000088070020790200082F1900083F05000822
:100010002D190008F10400083D1D00080000000033
:10002000000000000000000000000000DB1B0008D2
:100030003D05000800000000D91B0008DD1B00087A
:10004000930200089302000893020008930200083C
:10005000930200089302000893020008930200082C
:10006000930200089302000893020008F5040008B8
:10007000930200089302000893020008930200080C
:100080009302000800000000D50400089302000855
:1000900093020008930200089302000893020008EC
:1000A00093020008930200089302000893020008DC
:1000B0009302000893020008CD1C00089302000878
:1000C00093020008930200089302000893020008BC
:1000D00093020008930200089302000893020008AC
:1000E000930200089302000893020008930200089C
:1000F0009302000893020008930200080000000029
:1001000000000000930200080000000093020008B5
:100110009302000800000000930200089302000808
:10012000930200089302000893020008930200085B
:100130009302000800000000000000009302000885
:100140009302000893020008000000000000000075
:10015000000000000000000000000000000000009F
:1001600000000000000000000000000093020008F2
:1001700093020008000000000000000000000000E2
:1001800000000000930200080000000000000000D2
:10019000000000000000000000000000000000005F
:1001A0000000000000000000930200089302000815
:1001B0009302000893020008930200080000000068
:1001C0000000000093020008000000000000000092
:1001D000930200089302000800F002F800F03CF8D7
:1001E0000AA090E8000C82448344AAF10107DA4592
:1001F00001D100F031F8AFF2090EBAE80F0013F0A8
:10020000010F18BFFB1A43F001031847442B0000ED
:10021000642B0000103A24BF78C878C1FAD852077E
:1002200024BF30C830C144BF04680C607047000070
:100230000023002400250026103A28BF78C1FBD8EF
:10024000520728BF30C148BF0B6070471FB502F08E
:1002500097FC1FBD10B510BD00F001F91146FFF766
:10026000F5FF02F031FB00F01FF903B4FFF7F2FFD6
:1002700003BC00F027F900000948804709480047FF
:10028000FEE7FEE7FEE7FEE7FEE7FEE7FEE7FEE746
:10029000FEE7FEE704480549054A064B70470000A3
:1002A000BD1C0008D9010008880100208807002033
:1002B000880300208803002053EA020C00F06980C4
:1002C0002DE9F04B4FF00006002B1FBFB3FA83F56A
:1002D00003FA05F424FA05F65E4012BF1643B2FA9B
:1002E00082F502FA05F4C5F120051EBF22FA05FCCD
:1002F00044EA0C04203556EA044C4FEA144418BF73
:10030000641C4FF000084FF00009904271EB030CA1
:1003100039D3002919BFB1FA81F701FA07F6B0FA0B
:1003200080F700FA07F6C7F120071EBF20FA07FC86
:1003300046EA0C062037B6FBF4FCA7EB0507103F96
:1003400007F01F0BCBF120060CFA0BFB2CFA06F67C
:1003500044BFB3460026202FA4BF5E464FF0000BDB
:100360005BEA060C08BF4FF0010B19EB0B09ABFB66
:10037000027C48EB0608C01B06FB02CC0BFB03CC3F
:1003800071EB0C01C1E70B46024641464846BDE809
:10039000F08B13B54FF000004FF00001AFF3008079
:1003A000BDE81C40704710B5203AC0F00B80B1E8A2
:1003B0001850203AA0E81850B1E81850A0E818509A
:1003C000BFF4F5AF5FEA027C24BFB1E81850A0E8A3
:1003D000185044BF18C918C0BDE810405FEA827CBD
:1003E00024BF51F8043B40F8043B08BF7047D207D4
:1003F00028BF31F8023B48BF11F8012B28BF20F875
:10040000023B48BF00F8012B70474FF0000200B5D7
:10041000134694469646203922BFA0E80C50A0E827
:100420000C50B1F12001BFF4F7AF090728BFA0E8D5
:100430000C5048BF0CC05DF804EB890028BF40F8A1
:10044000042B08BF704748BF20F8022B11F0804FE3
:1004500018BF00F8012B704770477047704775460A
:1004600000F02CF8AE4605006946534620F0070020
:10047000854618B020B5FFF70DFFBDE820404FF0CE
:1004800000064FF000074FF000084FF0000B21F07E
:100490000701AC46ACE8C009ACE8C009ACE8C0094B
:1004A000ACE8C0098D46704710B50446AFF3008034
:1004B0002046BDE81040FFF7D8BE00000048704756
:1004C0002401002001491820ABBEFEE726000200EF
:1004D0007047000005480168C1F38011002903D06E
:1004E0004021016001F08CBE704700000001005007
:1004F000FEE700000D4810B50168C1F34001002976
:1005000012D0022141600A490A788258097822F003
:100510000202425002F086F908B1064948840648B2
:10052000C16841F00801C16010BD00000000024038
:10053000B82B000870000020000800407047FEE75C
:1005400030B54FF0A0444B68A46800220E4D04F073
:100550000104AD6805F001052C4302D001221046CC
:1005600030BD0A4D53B10C681C43D1E902310B4335
:1005700081681C4329400C438460F0E78368096864
:100580002B400B438360EAE700010050E030C0FFDE
:1005900010B54B688468002214F0010F02D00122CC
:1005A000104610BD33B1D1E902342343C46824F0AE
:1005B000047403E0C368CC6823F004732343C3606E
:1005C000D1E900310B43C16C6FF308010B43C364E5
:1005D000E6E70C2202EA91110844D0F8800080B2CC
:1005E000704710B5C36C01F01F011F248C40C2F38B
:1005F0008462A3438A401343C36410BD10B5C36C27
:1006000001F01F011F248C40C2F38462A3438A407F
:100610001343C36410BD30B58368002213F0010F8B
:1006200002D00122104630BDD1E90034234389684D
:10063000C4684CF21805AC4321430B43C360F1E797
:1006400070B54C688368002213F0010F02D00122BC
:10065000104670BD002C0E4B0C6807D08D682C43E3
:10066000D1E9035635432C434D6904E0CD682C4352
:10067000D1E9045635432C43C5681D402C43C46062
:100680004968036B23F00F030B430363E0E70000AB
:100690001CC0F0FF0C2303EA911310B51844036B40
:1006A00001F01F011F248C40C2F38462A3438A40DF
:1006B0001343036310BD042303EAD15310B5184458
:1006C0004369C1F3045107248C40A3438A40134378
:1006D000436110BD10B550F8B03FC1F31204A343FD
:1006E00002F01804024AE2400A401343036010BDBE
:1006F000FFFF0700D0F8C0206FF30D020A43C0F8D7
:10070000C020026922F4803201B1012142EA014194
:10071000016170478268044B01F080411A400A432E
:1007200042F0004181607047C0FFFF3F044908B5B7
:100730008A6C02438A64896C0140009108BD000004
:1007400000100240044908B5CA6C0243CA64C96C6F
:100750000140009108BD000000100240044908B5A6
:100760008A6D02438A65896D0140009108BD0000D1
:1007700000100240044908B50A6E02430A66096E79
:100780000140009108BD00000010024030B5036830
:100790000022DB0F02D00122104630BDD1E9003427
:1007A0002343D1E902452C43096923430B430168E4
:1007B000024C21400B430360EEE700000F7E00FF78
:1007C000F0B5002501F010030126946807689E40EB
:1007D000BE430FD054B30668C02C0DD040F6FC7158
:1007E00099408E4311682143D468214399400E43B8
:1007F000066023E001252DE0C0249C40A64326434B
:100800000660046E40F60F769E40B4431668576843
:10081000B608BF0846EA07269E4034430466C1F383
:10082000C01100EB8101D4688C6507E00168FC24ED
:100830009C40A14314689C4021430160C46B072184
:1008400099408C43D2E9041692693143114399408F
:100850000C43C4632846F0BD074B83EA902001EBAC
:10086000C000810098020844D0F8001821F0FF0170
:100870001143C0F80018704780001000F0B50A68F6
:100880000F2692FAA2F2B2FA82F303248AE001253B
:100890009D402A407ED04D68012D01D0022D20D1EF
:1008A0008D68876892FAA2FCBCFA8CFC4FEA4C0E69
:1008B00004FA0EFC27EA0C0792FAA2FCBCFA8CFCA4
:1008C0004FEA4C0C05FA0CF52F438760CF680D6892
:1008D000D0F804C02CEA050C7D434CEA050CC0F8A6
:1008E00004C00F69D0F80CC092FAA2F5B5FA85F5EC
:1008F0004FEA450E04FA0EF52CEA050C92FAA2F521
:10090000B5FA85F56D00AF404CEA070CC0F80CC095
:100910004D68022D2FD1FF2A15D8D1F814C0056AD1
:1009200092FAA2F7B7FA87F7BF0006FA07F7BD43B6
:1009300092FAA2F7B7FA87F7BF000CFA07FC45EA6C
:100940000C05056217E0D1F814E0476A150A95FA1C
:10095000A5FCBCFA8CFC4FEA8C0C06FA0CFC95FA50
:10096000A5F5B5FA85F5AD0027EA0C070EFA05FEE8
:1009700047EA0E0747624D68076892FAA2FCBCFA84
:100980008CFC4FEA4C0C04FA0CFE27EA0E0792FA94
:10099000A2F200E005E0B2FA82F2520095402F4345
:1009A00007605B1C0A6832FA03F57FF470AF002021
:1009B000F0BD4FF47A71B0FBF1F14FF0E020491E29
:1009C000416100218161052101617047064A10B52E
:1009D00052F8881FC0F3044303249C40C0B2A143D3
:1009E00098400143116010BD0010024003498A681D
:1009F00022F0F00202438A607047000000100240BB
:100A00000149086070470000000000200A7B8B68E5
:100A10001A434B6822F480621A430B6822F4006286
:100A20001A43CB8922F480521A430B6922F40052F4
:100A30001A43CB6A22F480421A434B6922F4702293
:100A40001A438B6922F080521A430C4B984202D011
:100A50000B4B98420FD14B6A22F470021A43CB69B8
:100A600022F080721A430B6A22F000721A43896ADC
:100A700022F000520A43426400207047002C0140DB
:100A80000034014010B5012925D0042925D01029B2
:100A900025D0402925D0B1F5807F24D0B1F5806FD5
:100AA00023D0B1F5805F22D0B1F5804F21D0B1F5D0
:100AB000803F20D00921114B18305B5C184403683B
:100AC0000E4C1434615C03248C40120CA3438A4006
:100AD0001343036010BD0021EDE70121EBE7022184
:100AE000E9E70321E7E70421E5E70521E3E706213C
:100AF000E1E70721DFE70821DDE70000902B000890
:100B000010B5012925D0042925D0102925D0402948
:100B100025D0B1F5807F24D0B1F5806F23D0B1F519
:100B2000805F22D0B1F5804F21D0B1F5803F20D039
:100B30000921114B18305B5C184403680E4C1434C7
:100B4000615CF0248C40120CA3438A401343036081
:100B500010BD0021EDE70121EBE70221E9E70321C8
:100B6000E7E70421E5E70521E3E70621E1E70721BF
:100B7000DFE70821DDE70000902B000810B5012910
:100B80001FD004291FD010291FD040291FD0B1F534
:100B9000807F1ED0B1F5806F1DD0B1F5805F1CD075
:100BA000B1F5804F1BD0B1F5803F1AD00921036AFF
:100BB0000D4C615C0A248C40A3438A4013430362BA
:100BC00010BD0021F3E70121F1E70221EFE7032146
:100BD000EDE70421EBE70521E9E70621E7E7072137
:100BE000E5E70821E3E70000AE2B000810B5012976
:100BF00025D0042925D0102925D0402925D0B1F5AC
:100C0000807F24D0B1F5806F23D0B1F5805F22D0F2
:100C1000B1F5804F21D0B1F5803F20D00921114B93
:100C200018305B5C184403680E4C1434615C0C246F
:100C30008C40120CA3438A401343036010BD002173
:100C4000EDE70121EBE70221E9E70321E7E70421D2
:100C5000E5E70521E3E70621E1E70721DFE70821D2
:100C6000DDE70000902B00082DE9F0430268224BDD
:100C7000224D234E234C4FF08049984207D04845DF
:100C800005D0A84203D0B04201D0A04203D14F68A2
:100C900022F070023A431C4FDFF870C0DFF870801A
:100CA00098420DD048450BD0A84209D0B04207D099
:100CB000A04205D0B84203D0604501D0404503D1E1
:100CC000CD6822F440722A4302608A68C2620A88B0
:100CD0008262984207D0A04205D0B84203D0604556
:100CE00001D0404501D109690163416941F0010129
:100CF00041610020BDE8F083002C01400004004069
:100D00000008004000340140004001400044014020
:100D100000480140012922D0042922D0102922D0E4
:100D2000402922D0B1F5807F21D0B1F5806F20D04D
:100D3000B1F5805F1FD0B1F5804F1ED0B1F5803F77
:100D40001DD009210F4A1830525C104402680D4B27
:100D50000A335B5C042199408A430260704700219A
:100D6000F0E70121EEE70221ECE70321EAE70421A5
:100D7000E8E70521E6E70621E4E70721E2E70821A5
:100D8000E0E70000902B0008012922D0042922D09E
:100D9000102922D0402922D0B1F5807F21D0B1F591
:100DA000806F20D0B1F5805F1FD0B1F5804F1ED08D
:100DB000B1F5803F1DD009210F4A1830525C104414
:100DC00002680D4B0A335B5C082199408A4302603C
:100DD00070470021F0E70121EEE70221ECE7032153
:100DE000EAE70421E8E70521E6E70621E4E7072131
:100DF000E2E70821E0E70000902B0008012922D05B
:100E0000042922D0102922D0402922D0B1F5807F98
:100E100021D0B1F5806F20D0B1F5805F1FD0B1F542
:100E2000804F1ED0B1F5803F1DD009210F4A1830E8
:100E3000525C104402680D4B0A335B5C08219940F8
:100E40000A43026070470021F0E70121EEE702212A
:100E5000ECE70321EAE70421E8E70521E6E70621BC
:100E6000E4E70721E2E70821E0E70000902B000813
:100E70002DE9F0478C460121BCF5805F25D009DCC7
:100E8000BCF1010F14D0BCF1100F15D0BCF5807F60
:100E900016D116E0424B434C434D444E444F4FF065
:100EA0000009BCF5803F14D0BCF5801F74D141E02F
:100EB000114600F057FD02E0114600F09FFD01468B
:100EC0006AE0114600F0EAFDF9E7114600F034FE51
:100ED000F5E7016A21F480310162D0F820C0016D8C
:100EE000DFF8D0802CF4003C01EA0801D2F8008041
:100EF000984241EA0801B2F810804CEA084CB2F876
:100F000004802CF4803C4CEA084C07D0A04205D069
:100F1000A84203D0B04201D0B84206D143689469D8
:100F200023F4803343EA042343600165D168826C73
:100F300081642EE0016A21F480110162D0F820C0A2
:100F4000016DDFF874802CF4001C01EA0801D2F86E
:100F50000080984241EA0821B2F810804CEA085C0F
:100F6000B2F804802CF4801C4CEA085C07D0A04244
:100F700005D0A84203D0B04201D0B84206D14368A0
:100F8000946923F4802343EA842343600165D16894
:100F9000C164C0F820C049460846BDE8F08700009B
:100FA000002C014000340140004001400044014059
:100FB000004801408FFFFEFFFF8FFFFE70B598B025
:100FC000002414941594182106A81694FFF71DFA0E
:100FD00011941294139410940C940D940E9418215F
:100FE00068460F94FFF711FA4E48FFF7EFFC4FF4F5
:100FF0000050FFF7A7FB0220FFF7A4FB0220032508
:10100000CDE90005484E694604943046FFF736FCAA
:101010004FF48050CDE90005694604943046FFF74F
:101020002DFC00F099FE0022032100F081FC014616
:10103000122000F099FE122000F081FE4FF0A04532
:101040001494159414A928461694FFF7E4FA06940C
:101050000794089409940A9406A928460B94FFF76C
:10106000EFFA00212846FFF745FB286940F20341CB
:10107000884328614FF44030CDE9100410A92B4873
:10108000FFF75EFAA020CDE90C040E940CA92846C7
:101090000F94FFF77DFAE8682549084040F00040CA
:1010A000E860E86C20F4C07040F48070E864A868E0
:1010B00020490840A860A8681F49084040F08050B7
:1010C000A8601E481E490068B0FBF1F000EB8000EC
:1010D00080000A21B0FBF1F000E0401E0028FCD1A6
:1010E000184C062122462846FFF7D4FA0122214651
:1010F0002846FFF7E0FA7F2221462846FFF7EAFA62
:10110000114C092122462846FFF76BFA002221469E
:101110002846FFF7D0FA7F2221462846FFF7DAFA61
:1011200018B070BD02001C0000040048000300500D
:10113000FFFFDF7FC0FFFF5FC0FFFF7F00000020D9
:10114000400D03000008302E0010603270B594B0DE
:10115000002410941194182106A81294FFF755F951
:101160000C940D940E94182168460F94FFF74DF9D6
:101170006D48FFF72BFC4FF40050FFF7E3FA012016
:10118000FFF7E0FA0420FFF7DDFA0220FFF7DAFAB2
:1011900040200326CDE90006694604944FF09040B4
:1011A000FFF76CFB1020CDE90006694604945F4808
:1011B000FFF764FB0420CDE900065D4D6946049409
:1011C0002846FFF75BFB4FF40060CDE90006694657
:1011D00004942846FFF752FB00F0BEFD00220321D5
:1011E00000F0A6FB0146122000F0BEFD122000F028
:1011F000A6FD504D1094119410A928461294FFF7A3
:101200000AFA06940794089409940A9406A92846B1
:101210000B94FFF715FA00212846FFF76BFA2869AF
:1012200040F2034188432861A0200C90CDE90D6471
:101230000CA928460F94FFF7ABF9E8683E4908402F
:1012400040F00040E860E86C20F4C07040F480702A
:10125000E864A86839490840A860A8683849084087
:1012600040F08050A860374837490068B0FBF1F083
:1012700000EB800080000A21B0FBF1F000E0401E8E
:101280000028FCD1314C092122462846FFF7A9F954
:10129000002221462846FFF70EFA7F2221462846E3
:1012A000FFF718FA2A4E062132462846FFF7F2F9D0
:1012B000012231462846FFF7FEF97F2231462846B3
:1012C000FFF708FA224640F20F112846FFF789F986
:1012D000002221462846FFF7EEF97F2221462846C4
:1012E000FFF7F8F9224640F215212846FFF779F971
:1012F000002221462846FFF7DEF97F2221462846B4
:10130000FFF7E8F9224640F21B312846FFF769F95A
:10131000002221462846FFF7CEF97F2221462846A3
:10132000FFF7D8F914B070BD02001C000008004897
:101330000004004800010050FFFFDF7FC0FFFF5F97
:10134000C0FFFF7F00000020400D03000800900C4C
:101350000010603210B58CB014216846FFF755F8C4
:10136000182105A8FFF751F80220FFF7EBF902203A
:10137000059003200024069005A909941448FFF75E
:101380007DFA4FF480700090502001904FF4E020DF
:10139000CDE9020469460F480494FFF7F7F90E48B7
:1013A0000E490068B0FBF1F0C821484300E0401E40
:1013B0000B900028FBD10A48016821F4001101605C
:1013C000001F016821F4001101600CB010BD000085
:1013D00000040048000201400000002080841E003C
:1013E0000404014010B588B01C216846FFF70DF8D1
:1013F0004FF48030FFF7A6F90F4C0E49E26B002046
:1014000022F40072E26302220492009001900290A2
:101410000122CDE905206A462046FFF7D1F9206870
:1014200020F002002060E06B20F48070E06308B0E0
:1014300010BD000001001102000800502DE9F04726
:1014400086B018216846FEF7E0FF0420FFF77AF91E
:101450002020FFF777F90120FFF774F90220FFF74A
:1014600071F9344E4FF40050B0624700B7624FF448
:101470000048C6F828804FF0904A0421CAF8281086
:10148000DFF8B4900121C9F82810C9F82870C9F80C
:10149000288000900024CDE901140D46039469468C
:1014A00030460494FFF7EAF90097CDE9015403941C
:1014B000694630460494FFF7E1F9CDF80080CDE9A4
:1014C00001540394694630460494FFF7D7F9042089
:1014D000CDE900050320CDE9020469465046049495
:1014E000FFF7CCF90820CDE9000469465046049482
:1014F000FFF7C4F90095CDE90154039469464846C5
:101500000494FFF7BBF90097CDE9015403946946B1
:1015100048460494FFF7B2F9CDF80080CDE90154B4
:101520000394694648460494FFF7A8F906B0BDE85D
:10153000F087000000080048000400482DE9F04151
:10154000A0B014211AA8FEF760FF202106A8FEF71C
:101550005CFF30210EA8FEF758FF18216846FEF701
:1015600054FF4FF40060FFF705F90024ADF8684020
:1015700042F23310CDE91B40644D1D941AA9284650
:101580001E94FFF771FB286820F080002860A8688F
:101590005F490840A86001212846FFF72FFC602022
:1015A000CDE90604089409940A940B940C9406AAB5
:1015B000012128460D94FFF75BFC01212846FFF727
:1015C000A9FB10212846FFF719FC06AA102128467E
:1015D000FFF74EFC10212846FFF79CFB4FF4807864
:1015E00041462846FFF70AFC06AA41462846FFF76F
:1015F0003FFC41462846FFF78DFBAF14394628468D
:10160000FFF7FCFB06AA39462846FFF731FC3946AE
:101610002846FFF77FFB68683E49084068606868B5
:1016200020F4700040F4E0006860A86820F08000BA
:10163000A860364802216030026891FAA1F3B3FA3B
:1016400083F3461591FAA1F103F01F03B1FA81F17A
:1016500006FA03F301F01F019A4304FA01F10A4369
:101660000260016841F00201016001212846FFF794
:101670008BFB10212846FFF787FB41462846FFF7E2
:1016800083FB39462846FFF77FFB68148DF84440FA
:1016900012900E940F941094ADF846708001CDE92D
:1016A00013048001CDE91540179418940EA928461B
:1016B0001994FFF7ABF90120FFF744F8CDF800804B
:1016C0000225CDE901540627CDE904474FF09048A3
:1016D000694640460394FFF7D1F80096CDE90154DE
:1016E000CDE90447694640460394FFF7C7F868020E
:1016F0000090CDE90154CDE9044769464046039482
:10170000FFF7BCF820B0BDE8F0810000002C0140DC
:10171000F8BFFEFF8FFFFFFD70B594B014210EA837
:10172000FEF773FE20216846FEF76FFE182108A819
:10173000FEF76BFE0420FFF711F80220FFF702F816
:101740004020089002200025CDE90905CDE90C5084
:1017500008A90B955A48FFF791F85A4C43220021EB
:101760002046FFF779F858480178615844F2100292
:1017700091430278A15001786158027821F44051D8
:10178000A15001786158027821F02001A150017820
:101790006158027821F04001A15001786158027827
:1017A00041F08001A1500178A6156158027821F41A
:1017B000407141F48071A15001786158007821F4A2
:1017C000406141F48061215000F0C6FA00220721F7
:1017D00000F0AEF801461E2000F0C6FA1E2000F010
:1017E000AEFAADF838504FF6FF70CDE90F504FEA22
:1017F000F4440EA920461195FFF736FA206820F030
:1018000080002060A06831490840A0601020CDE928
:101810000005029503956A46314620460495FFF778
:1018200027FB31462046FFF775FAA0682849084093
:1018300040F05000A060A0682649084040F0040035
:10184000A060206A20F00100206265022A46012182
:101850002046FFF755F9002201212046FFF78EF9B7
:10186000E06820F04000E060E06820F48040E06044
:10187000A21301212046FFF705F90022012120468D
:10188000FFF7B4F9621310212046FFF7FBF800229E
:1018900010212046FFF7AAF92A4610212046FFF71B
:1018A0002FF9022210212046FFF768F960680A49E3
:1018B00008406060A06820F08000A06014B070BD97
:1018C00000040048000002408A2B0008F8BFFEFF19
:1018D0008FFFCFFFF8FFFEFF8FFFFFFD70B59FED7D
:1018E000120A03291ED300234E1E14E00022CD1A33
:1018F0006D1E0DE000EB820494EC020AB4EEE00AE7
:10190000F1EE10FA03DDC4ED000A84ED010A521C69
:101910009542EFDC5B1CB342E8DB490800EB810039
:1019200090ED000A70BD000000000000FEE7FEE739
:1019300030B500F00703C3F10704042C00D90424D8
:10194000181D072801D2002300E0DB1E012505FA3F
:1019500004F0401E084098409D406D1E15402843ED
:1019600030BD000030B5026A22F001020262036A53
:10197000446882691B4D22F003022A400D6823F05F
:1019800002032A430D692B434D6823F001032B43C7
:10199000154DA8420BD0154DA84208D0144DA842B1
:1019A00005D0144DA84202D0134DA84212D14D6962
:1019B00023F0080343EA85038D6823F0040343EA18
:1019C00085038D6924F480742C43CD6924F400745C
:1019D00044EA450444608261C968416303620020AF
:1019E00030BD00008FFFFEFF002C0140003401409D
:1019F00000400140004401400048014030B5026A07
:101A000022F010020262056A426883691D4C23F4C9
:101A1000407323400C6843EA042425F020030D6939
:101A200043EA05134D6823F0100343EA0513164DEE
:101A3000A8420BD0154DA84208D0154DA84205D09C
:101A4000144DA84202D0144DA84213D14D6923F081
:101A5000800343EA85138D6823F0400343EA85132E
:101A60008D6922F4806242EA8502CD6922F4006227
:101A700042EAC50242608461C96881630362002052
:101A800030BD0000FF8FFFFE002C014000340140FC
:101A900000400140004401400048014030B5026A66
:101AA00022F480720262046A4368C2691C4D22F00B
:101AB00003022A400D6824F400742A430D6944EAA5
:101AC00005244D6824F4807444EA0524154DA84289
:101AD0000BD0154DA84208D0144DA84205D0144D86
:101AE000A84202D0134DA84213D14D6924F40064DA
:101AF00044EA85248D6824F4806444EA85248D6951
:101B000023F4805343EA0513CD6923F4005343EAD9
:101B100045134360C261C968C1630462002030BDDF
:101B20008FFFFEFF002C01400034014000400140C7
:101B3000004401400048014030B5026A22F480525E
:101B40000262056A4268C3691D4C23F44073234056
:101B50000C6843EA042425F400530D6943EA053375
:101B60004D6823F4805343EA0533164DA8420BD049
:101B7000154DA84208D0154DA84205D0144DA842D5
:101B800002D0144DA84213D14D6923F4004343EA17
:101B900085338D6823F4804343EA85338D6922F4CD
:101BA000804242EA8512CD6922F4004242EAC5121F
:101BB0004260C461C96801640362002030BD000056
:101BC000FF8FFFFE002C0140003401400040014027
:101BD00000440140004801407047704700F07ABC63
:101BE0002F4810B5016821F00F0141F00401016098
:101BF000016801F00F010429FAD12A4850F8801F2A
:101C000021F480710160284C206840F4803020600D
:101C10002068C0F340400028FAD0E16845F2135034
:101C2000224A11400843E060E06840F08070E060C4
:101C3000206840F0807020602068C0F34060002879
:101C4000FAD0A06840F00300A0608020FEF7CEFE2E
:101C5000A06800F00C000C28FAD11548016841F08A
:101C6000807101601348016841F0010101600021A9
:101C7000416041686429FCD30020FEF7B7FEA068EC
:101C800020F4E060A060A06820F46050A0600A4CDE
:101C90002046FEF78EFE2046BDE81040FEF7B0BE9F
:101CA0000020024000700040001002400C80FFF94C
:101CB000FCED00E0001000E080FE210A024801680F
:101CC00041F470010160704788ED00E030B51948BB
:101CD0000169C1F3C00100292AD04FF090420421CC
:101CE00091616FF008010161C16821F00801C160D4
:101CF0004FEA703110480378CB58047843F0020360
:101D00000B510378CB58047823F001030B5104786E
:101D10000B1DE45805786FF30F0444F01004EC50E9
:101D20000378CB58007843F001030B5004209062F5
:101D300030BD000000080040B82B0008FEE7002876
:101D400009DB00F01F02012191404009800000F1F1
:101D5000E020C0F80011704702480068C0F302207C
:101D6000704700000CED00E00907090E002804DBB5
:101D700000F1E02080F80014704700F00F0000F13F
:101D8000E02080F8141D7047B6EE001A60EE810A5C
:101D90009FED0C1A20EE811AB4EEC01AF1EE10FA83
:101DA00001D2012070479FED081A60EE810AF4EE1F
:101DB000C00AF1EE10FA02DD4FF0FF30704700204C
:101DC000704700006666863F3333733F2DE9F0416C
:101DD0002B4F2C4C3A462DED028B09212046FEF765
:101DE0000DFC40F20F153A4629462046FEF706FC48
:101DF00040F215263A4631462046FEF7FFFB3A46AA
:101E000040F21B3739462046FEF7F8FB09212046F1
:101E1000FEF7DFFB00EE100A29462046B8EE408AA6
:101E2000FEF7D7FB00EE100A31462046B8EE400A16
:101E300038EE008AFEF7CDFB00EE100A3946204648
:101E4000B8EE400A38EE008AFEF7C3FB00EE100A37
:101E5000DFED0D0AB8EE400A38EE000ABDEC028B49
:101E600020EE200ADFED090A20EE200ADFED080A45
:101E700020EE200AF5EE000A20EE200ABDE8F081EF
:101E80000800900C000100500000803933335340AB
:101E90000080C8432DE9F0412B4F2C4C3A462DEDE4
:101EA000028B09212046FEF7A9FB40F20F153A46A6
:101EB00029462046FEF7A2FB40F215263A46314657
:101EC0002046FEF79BFB3A4640F21B373946204638
:101ED000FEF794FB09212046FEF77BFB00EE100A7B
:101EE00029462046B8EE408AFEF773FB00EE100A42
:101EF00031462046B8EE400A38EE008AFEF769FB0C
:101F000000EE100A39462046B8EE400A38EE008A44
:101F1000FEF75FFB00EE100ADFED0D0AB8EE400A97
:101F200038EE000ABDEC028B20EE200ADFED090A34
:101F300020EE200ADFED080A20EE200AF5EE000A66
:101F400020EE200ABDE8F0812000F01400010050CE
:101F500000008039333353400080C8432DE9F041FD
:101F60002B4F2C4C3A462DED028B09212046FEF7D3
:101F700045FB40F20F153A4629462046FEF73EFB48
:101F800040F215263A4631462046FEF737FB3A46E0
:101F900040F21B3739462046FEF730FB0921204628
:101FA000FEF717FB00EE100A29462046B8EE408ADD
:101FB000FEF70FFB00EE100A31462046B8EE400A4D
:101FC00038EE008AFEF705FB00EE100A394620467F
:101FD000B8EE400A38EE008AFEF7FBFA00EE100A6F
:101FE000DFED0D0AB8EE400A38EE000ABDEC028BB8
:101FF00020EE200ADFED090A20EE200ADFED080AB4
:1020000020EE200AF5EE000A20EE200ABDE8F0815D
:102010000040C03A00010050000080393333534083
:102020000080C84310B500F05DF80449012802D1D2
:102030000878C0430870087810BD000060000020D8
:1020400010B5044609214FF0A040FEF7C2FA00EE99
:10205000100ADFED0B0A9FED0B1AB8EE400A0C4890
:1020600060EE200A9FED080A046400EE810A9FEDED
:10207000071AC0EE010AB2EE041A80EE810A10BD02
:1020800000008039333353403333D3BF0AD7A33BE7
:10209000002C01404FF0A04081680E4A1140091DFC
:1020A00081600168C1F380010029FAD0006CDFED86
:1020B0000A0A80B200EE100AB8EE400A20EE200AAA
:1020C000DFED060A20EE200ADFED050A20EE200AE9
:1020D00070470000C0FFFF7F00008039333353405A
:1020E000000000424FF0904000690B4910F0080FCB
:1020F0004FF0000202D00A80002070470888431C7D
:102100000B80B0F5967FF7D904480A80C16841F08A
:102110000801C16001207047040000200008004051
:1021200000B5E5B04FF4C8722D496846FEF73BF99B
:102130002C4881682C4A1140091D81600168C1F357
:1021400080010029FAD0006CF0EE000A80B200EEA7
:10215000100A9FED261ADFED261AB8EE400A60EE4F
:10216000200A31EE400A80EE801AB2EE040A70EEC8
:10217000410A80EEA12AFDEEC20A10EE900A40B29A
:10218000002801DA002002E0642800D3622000EE7B
:10219000900A694601EB8000B8EEE02AF0EE400AB2
:1021A00042EE610A90ED012AF0EE601AD0ED000ACD
:1021B00031EE611A104832EE602A21EE000A9FEDDE
:1021C0000F1A40EE020A9FED0B0A20EE800AD0EDB6
:1021D000010A00EE810A80ED010A65B000BD000031
:1021E000C02B000800010050C0FFFF7F00008045A9
:1021F000CDCCCC3DCDCC4C3D040000203333733FDF
:102200002DE9F0472DED048B9FED758AF020FFF747
:1022100017FF744E744D86ED010AA87F032826D15E
:1022200095F82000714905F128040027A4F1380829
:1022300058B16F4A9FED6F9ADFED6F8A4FF0060934
:10224000012815D00228EAD16CE00968A0888847E7
:10225000E868401CA0F58071E860913907D1C8F8A2
:10226000047088ED028A0120EF6085F82000B0E05C
:10227000A0780028A08803D0627851F8221002E0EC
:10228000617852F82110884786ED030AE868411CFE
:10229000E960E188884207D1EF606078401CB0FBBC
:1022A000F9F209FB1200607095ED050AD8ED020AFB
:1022B000AA46454630EE200A88ED020AD6ED000A0D
:1022C00096ED030AFFF760FD94F90010C14228D192
:1022D00048422070D5ED020A9FED481A85ED028A2A
:1022E00081EE200AD4ED020A20EE090A00EEA80AC7
:1022F00084ED020A6868401C6860322869D1404950
:102300006F60CAF80C7081ED060A81ED070A6178EA
:10231000491CB1FBF9F309FB1311617002218AF822
:10232000201056E0A0780028A08803D0627851F8E9
:10233000221002E0617852F82110884786ED030AE6
:1023400095ED050AD8ED020AAA46454630EE200A68
:1023500088ED020AD6ED000A96ED030AFFF714FD98
:1023600094F90010C1420DD16868401C6860484271
:10237000207085ED028A6078401CB0FBF9F209FB01
:1023800012006070DAF80C10491CCAF80C101429FD
:102390001DD195ED010ADFED1B0AB0EE081AB8EE6B
:1023A000400A6F60CAF80C7020EE200AC0EE010AE5
:1023B0009FED151A80EE810AD4ED020A20EE090A7B
:1023C00000EEA80A84ED020A00F08EFBA08000F067
:1023D0004FFABDEC048BBDE8F04700F017B80000E1
:1023E00000000000A4000020700000200C0000206D
:1023F00024000020CDCC4C3D3333733F910A863FFF
:102400003C000020DA0F49406F12833A7047000009
:1024100010B5174C4FF47A720023D4E90001FDF790
:102420004BFF1A4312D113484FF4804241698A434B
:1024300001F4804142EA0141816141694FF4004267
:102440008A4301F4004142EA01418161608CF0EE6F
:10245000000A00EE100A0948B8EE400A20EE200AF1
:10246000DFED050A20EE200A80ED070A10BD00000E
:102470007000002000080048DA0F49403C000020AE
:1024800004494FF400508862034901208862C00368
:1024900088617047000800480004004804494FF470
:1024A00000508862034901208861C0038862704738
:1024B000000800480004004804494FF400508861B7
:1024C000034901208862C003886270470008004801
:1024D000000400482DE9F047674CDFF8A0814FF079
:1024E000FF372DED028B002594F91E004FF0020AF4
:1024F0004FF00309A8F11006B84205D088B10128B1
:1025000042D0022855D14EE000F03AF900F05AF9D5
:10251000A068411CA160B0F5FA7F4AD9A560A577F3
:102520008EE0FFF7B7FDD4E90001B0EE408A0A2241
:102530000023FDF7C1FE08EB82000A2180ED008A2E
:102540004E48FFF7CBF986ED000AD4ED060A9FED61
:102550004C1A20EE811AB4EEC10AF1EE10FA11DD28
:102560009FED481A60EE810AB4EEE00AF1EE10FA2F
:1025700008D2A068411CA16032281AD90120A560A8
:10258000A0775DE0A56014E0A168481CA060322936
:1025900004D9E560A56084F81EA051E02D284FD92C
:1025A00000F078F805E0FFF73DFD10B184F81E90CB
:1025B00002E0A07F032843D1FFF734FD00B9A777DD
:1025C000FFF768FDD4E90001B0EE408A0A2200233B
:1025D000FDF772FE08EB82000A2180ED008A274891
:1025E000FFF77CF986ED000AD4ED060A9FED261A66
:1025F00020EE811AB4EEC10AF1EE10FA0AD2A068F8
:10260000411CA16064281BD900F0BAF8A56084F8C9
:102610001F9012E09FED1D1A60EE810AB4EEE00AF1
:10262000F1EE10FA0BDDA068411CA160642807D907
:1026300000F0A6F8A56084F81FA0A77700E0A560C9
:10264000FFF76EFD10EE100A114986ED020A88426E
:1026500004DD00F095F80420E077A777D4E90001C5
:10266000401C41F10001C4E90001BDEC028BBDE852
:10267000F047FFF7CDBE000070000020B40000203E
:102680006666663FCDCC8C3FCDCC4C3F3333B33FF9
:10269000000082420F48002141638163C163012130
:1026A0000164416C41F400414164016A41F001015F
:1026B0000162016A41F010010162016A41F4807116
:1026C0000162016A41F480510162016841F0010137
:1026D00001607047002C0140054910B54863002097
:1026E0008863C863FFF7DAFEBDE81040FFF736BC29
:1026F000002C0140054910B5486300208863C86379
:10270000FFF7BEFEBDE81040FFF7C4BB002C014040
:10271000054910B500224A638863CA63FFF7CCFEFF
:10272000BDE81040FFF71ABC002C0140054910B568
:1027300000224A638863CA63FFF7A2FEBDE8104027
:10274000FFF744BB002C0140054910B500224A6345
:102750008A63C863FFF7B0FEBDE81040FFF79ABB7D
:10276000002C0140054910B500224A638A63C86302
:10277000FFF794FEBDE81040FFF728BB002C014096
:102780000F48002141638163C1630164416C21F4FE
:1027900000414164016A21F001010162016A21F0F6
:1027A00010010162016A21F480710162016A21F461
:1027B00080510162016821F0010101607047000051
:1027C000002C0140094800219FED090A80F82010E3
:1027D000283041704FF4FA7181807721C18005481B
:1027E00080ED060A80ED040A7047000070000020AA
:1027F000000000003C00002001B1012141EA40003E
:1028000083B2002118460A4641400009521C032A9F
:10281000FADB63F31F1188B270470000004870476D
:102820000001002030B50024104920464FF6FF7308
:1028300031F8102003EA4404A2F1C4051D2D02D290
:1028400044F0010402E05B3A1D2A0AD2401C102821
:10285000EEDB650904F010012846FFF7CDFFA0422A
:1028600001D0002030BD284630BD0000000100200E
:1028700011489FED121AD0ED070A90ED060A60EE9E
:10288000811A9FED0F1AB4EEE10AF1EE10FA02D2AE
:1028900030EE010A0AE0DFED0B1A60EEA11AB4EE89
:1028A000E10AF1EE10FA04DD30EE410A80ED060A8D
:1028B0007047C0ED060A70473C0000203333733F79
:1028C0007BD9A03E6666863F0120FDF753FF4FF09F
:1028D0008050FDF743FF734908684FF6FF02104030
:1028E000714A40F4407010430860FFF735FA002247
:1028F0000521FFF71DF801464FF0FF352846FFF789
:1029000033FA6A48016B21F001010163016B41F068
:10291000020101636648816841F480418160FFF7EC
:102920005FF96448016F11F4803F19D162498160F9
:10293000624981606249C1606249C1600169C9033D
:10294000FCD4416921F080414161016F41F4803143
:102950000167416941F4003141610169C903FCD457
:102960000420FDF7E3FE0120FDF7E0FEFFF7F4F998
:1029700000221146FEF7DCFF01460B20FFF7F4F9B9
:102980000B20FFF7DCF9FEF759FDFEF717FBFEF70A
:10299000E1FCFEF727FDFEF7D1FDFEF7D7FBFEF7C2
:1029A000BBFE494E442200213046FDF755FF4FEA59
:1029B000F64440F23620E063444FFFF72FFF4449CE
:1029C000414B0A780833D75009781A1D8850E068BF
:1029D00040F48060E060022070603E48016841F091
:1029E000010101603B4908310A686FF30B0242F4B0
:1029F00061620A60416841F001014160001D0168A7
:102A0000C907FCD13448016841F0010101604FF071
:102A1000A0467F213046FDF77DFEB068C00FFCD197
:102A20002E4F7F213846FDF775FEB868C00FFCD1E8
:102A3000B1682B48014041F00801B160B168014024
:102A4000491CB160B968014041F00801B960B9683A
:102A50000140491CB9602348416C41F480514164F4
:102A6000786840F040007860E06840F00800E0607E
:102A7000E06840F00200E060206A40F0010020625F
:102A8000206A40F010002062206840F001002060C1
:102A90004FF0E020016941F0020101612846FFF793
:102AA0004EF9FEE70CED00E00000FA0500000140E1
:102AB000007000400020024023016745AB89EFCD44
:102AC0003B2A19087F6E5D4C000002403808004028
:102AD0008A2B00080008005000020140000100504D
:102AE000C0FFFF7F002C01401F482049204AD0ED45
:102AF000060AD0ED021A30EEC01AD0ED040A90EDAD
:102B0000030A20EE800A01EE210AD1ED041A41EEFB
:102B1000210A10EE901AC0ED040A914202D9DFEDAD
:102B2000150A06E010EE901A134A914203DDDFED1C
:102B3000130AC0ED040AD0ED000AF4EEC00AF1EE6B
:102B400010FA06D3D0ED010AF4EEC00AF1EE10FA45
:102B500001DDB0EE600A80ED050ABCEEC00A10EEA1
:102B6000100A80B2704700003C0000207000002076
:102B70000000FAC40000FAC40000FA440000FA445D
:102B80004FF04070E1EE100A7047081C3044586C5A
:102B900000000000040404043838000008000000AD
:102BA0000800000800000800000008000000000203
:102BB0000406080A0C0E1014081C3044586C00005F
:102BC0000000C84191CFC9418FA4CB41147FCD41B2
:102BD000465FCF414345D1413131D3412A23D541CD
:102BE0005C1BD741E819D941F21EDB41A92ADD411E
:102BF000323DDF41B656E1416677E341759FE541DD
:102C000008CFE7415906EA419D45EC41018DEE416F
:102C1000C6DCF0412535F3415896F5419D00F84159
:102C20003974FA4170F1FC418C78FF41E8040142AB
:102C3000CA52024210A60342E8FE04427B5D0642ED
:102C4000FAC10742962C0942809D0A42F1140C42B7
:102C50001C930D4240180F4299A410426A38124248
:102C6000F5D313428577154264231742E1D7184202
:102C700054951A42175C1C42862C1E4209072042BA
:102C800008EC2142F5DB234247D7254281DE27426B
:102C90002AF22942D7122C421E412E42A87D3042F0
:102CA0002AC93242622435421C903742380D3A42DA
:102CB000A49C3C42653F3F428FF6414257C3444289
:102CC00004A74742FDA24A42CDB84D4223EA5042F2
:102CD000DA385442F7A65742BC365B42A9EA5E4254
:102CE00080C5624258CA6642AFFC6A4266606F4263
:102CF000EBF973423ECE784220E37D428E9F8142C3
:102D0000EC7484421676874242A88A4296118E421B
:102D10006EB99142AEA8954232EA99426C8B9E42BE
:102D20004D9DA3428535A9427970AF424074B642A9
:102D30008975BE42F6BFC74258C5D242DA3BE0426F
:102D40009160F142A55104438CED154360DB37439C
:102D5000702D000800000020A400000014020008EC
:102D6000142E0008A4000020E40600003002000831
:102D70000024F4000000000000000000D926000834
:102D8000F52600082D27000811270008492700080C
:102D900065270008D926000865270008492700088C
:102DA000112700082D270008F526000800B001466D
:102DB0000000FA430000C03F010070410000000025
:102DC0000000000000000000000000000000000003
:102DD00000000000000000000000000000000000F3
:102DE00000000000000000000000000000000000E3
:102DF0006F12833A18B751380000C0410103FF0039
:102E000000000000000000000100FF0000000000C2
:042E100000000000BE
:04000005080001D915
:00000001FF
