:020000040800F2
:10000000101C0020B90200083B2000080511000860
:100010003920000841050008F73E000800000000F4
:100020000000000000000000000000007D26000825
:10003000B9050008000000007B260008892600089A
:10004000D3020008D3020008D3020008D30200083C
:10005000D3020008D3020008D3020008D30200082C
:10006000D3020008D3020008D3020008D30200081C
:10007000D3020008D3020008D3020008D30200080C
:10008000D30200080000000015050008D302000894
:10009000893E0008D3020008D3020008D3020008FA
:1000A000D3020008D3020008D3020008D3020008DC
:1000B000D3020008D3020008D3020008D3020008CC
:1000C000D3020008D3020008D3020008D3020008BC
:1000D000D3020008D3020008D3020008D3020008AC
:1000E000D3020008D3020008D3020008D30200089C
:1000F000D3020008D3020008D30200080000000069
:1001000000000000D302000800000000D302000835
:10011000D302000800000000D3020008D302000848
:10012000D3020008D3020008D3020008D30200085B
:10013000D30200080000000000000000D302000805
:10014000D3020008D30200080000000000000000F5
:10015000000000000000000000000000000000009F
:10016000000000000000000000000000D3020008B2
:10017000D3020008000000000000000000000000A2
:1001800000000000D3020008000000000000000092
:10019000000000000000000000000000000000005F
:1001A0000000000000000000D3020008D302000895
:1001B000D3020008D3020008D302000800000000A8
:1001C00000000000D3020008000000000000000052
:1001D000D3020008D302000800F002F800F05CF837
:1001E0000AA090E8000C82448344AAF10107DA4592
:1001F00001D100F051F8AFF2090EBAE80F0013F088
:10020000010F18BFFB1A43F00103184724490000EF
:10021000444900000A444FF0000C10F8013B13F071
:10022000070408BF10F8014B1D1108BF10F8015B4F
:10023000641E05D010F8016B641E01F8016BF9D142
:1002400013F0080F1EBF10F8014BAD1C0C1B09D199
:100250006D1E58BF01F801CBFAD505E014F8016B0B
:1002600001F8016B6D1EF9D59142D6D3704700009D
:100270000023002400250026103A28BF78C1FBD8AF
:10028000520728BF30C148BF0B6070471FB504F04C
:1002900033FC1FBD10B510BD00F001F91146FFF78A
:1002A000F5FF04F00FFB00F01FF903B4FFF7F2FFB6
:1002B00003BC00F027F900000948804709480047BF
:1002C000FEE7FEE7FEE7FEE7FEE7FEE7FEE7FEE706
:1002D000FEE7FEE704480549054A064B7047000063
:1002E00095270008D901000810160020101C0020D6
:1002F000101800201018002053EA020C00F069804A
:100300002DE9F04B4FF00006002B1FBFB3FA83F529
:1003100003FA05F424FA05F65E4012BF1643B2FA5A
:1003200082F502FA05F4C5F120051EBF22FA05FC8C
:1003300044EA0C04203556EA044C4FEA144418BF32
:10034000641C4FF000084FF00009904271EB030C61
:1003500039D3002919BFB1FA81F701FA07F6B0FACB
:1003600080F700FA07F6C7F120071EBF20FA07FC46
:1003700046EA0C062037B6FBF4FCA7EB0507103F56
:1003800007F01F0BCBF120060CFA0BFB2CFA06F63C
:1003900044BFB3460026202FA4BF5E464FF0000B9B
:1003A0005BEA060C08BF4FF0010B19EB0B09ABFB26
:1003B000027C48EB0608C01B06FB02CC0BFB03CCFF
:1003C00071EB0C01C1E70B46024641464846BDE8C9
:1003D000F08B13B54FF000004FF00001AFF3008039
:1003E000BDE81C40704710B5203AC0F00B80B1E862
:1003F0001850203AA0E81850B1E81850A0E818505A
:10040000BFF4F5AF5FEA027C24BFB1E81850A0E862
:10041000185044BF18C918C0BDE810405FEA827C7C
:1004200024BF51F8043B40F8043B08BF7047D20793
:1004300028BF31F8023B48BF11F8012B28BF20F834
:10044000023B48BF00F8012B70474FF0000200B597
:10045000134694469646203922BFA0E80C50A0E8E7
:100460000C50B1F12001BFF4F7AF090728BFA0E895
:100470000C5048BF0CC05DF804EB890028BF40F861
:10048000042B08BF704748BF20F8022B11F0804FA3
:1004900018BF00F8012B70477047704770477546CA
:1004A00000F02CF8AE4605006946534620F00700E0
:1004B000854618B020B5FFF70DFFBDE820404FF08E
:1004C00000064FF000074FF000084FF0000B21F03E
:1004D0000701AC46ACE8C009ACE8C009ACE8C0090B
:1004E000ACE8C0098D46704710B50446AFF30080F4
:1004F0002046BDE81040FFF7D8BE00000048704716
:10050000AC15002001491820ABBEFEE72600020012
:10051000704700004FF0A0400168C1F3801100292E
:100520000AD006490A68C2F38012002A04D0402289
:1005300002600A6003F082BD7047000000010050B5
:10054000FEE70020704700207047000010B5002231
:100550000449054802F0A9FA0449034802F09CFA4C
:10056000002010BD0C10002054070020240C002097
:1005700010B50146034802F08FFA024802F054FA1F
:10058000002010BD5407002000207047094A10B514
:10059000D2F8BC22D2F814220AB1012010BD0A46BA
:1005A0000146044802F081FABDE81040014802F01B
:1005B000E6BA000054070020704772B6FEE700005C
:1005C0000248816842681144816070470000002041
:1005D00010B50024032000F079F8042000F008F89A
:1005E00008B1012401E000F025F8204610BD00000C
:1005F00070B50E4E05460024706898B14FF47A71BC
:10060000B1FBF0F00A490968B1FBF0F000F066FDBB
:1006100040B9102D06D200222946501E00F036F8AF
:10062000356000E00124204670BD0000000000207D
:100630000C0000200D4808B5016E41F00101016673
:10064000016E01F001010091816D41F080518165E1
:10065000806D00F08050009000F02EFD022000F030
:1006600033FDBDE8084000F01FBD0000001002404F
:10067000002809DB00F01F020121914040098000A1
:1006800000F1E020C0F8001170470000F0B40E4BFC
:100690001B680C46C3F30223C3F10705042D00D9E0
:1006A0000425191D072901D2002300E0DB1E0126C5
:1006B00006FA05F1491E214099409E40761E1640DB
:1006C0003143F0BC03F035BC0CED00E0064900F00E
:1006D000070208684FF6FF03184040EA0220034A69
:1006E00010430860704700000CED00E00000FA05C0
:1006F00001220168C0F8D022002280F8C82231F817
:10070000540F40F001000880088840F00200088083
:100710001046704770B50F4D044669B101290AD1E2
:10072000D4F8D80202F0F7FC607A002803D02868D9
:1007300040F00600286070BD607A28B101F0ACFF7F
:10074000286820F006002860D4F8D802BDE8704080
:1007500002F079BC10ED00E010B50C0607D501F0F1
:10076000070101EB810100EBC100103005E001EB56
:10077000810100EBC10000F5A87099B232B10122ED
:1007800002730181190C4181002010BD0022027307
:10079000C180F9E701EB810200EBC202D0F8D80278
:1007A000526A02F02EBB01EB810200EBC202D0F8CC
:1007B000D802D2F8642102F078BB70B504460B066B
:1007C00001F0070000EB800104EBC1014FF00102D2
:1007D0004FF0000502D54A74103103E081F8515101
:1007E00001F5A871087094F89002012808D084F8E7
:1007F0009022206802F0DAFF84F89052002070BD49
:10080000022070BD70B5044601F00F0022799042BD
:1008100001D9012070BD0B0601F0070000EB80013B
:1008200004EBC1014FF001024FF0000502D54A74FC
:10083000103103E081F8515101F5A8718D700870F5
:1008400094F89002012808D084F89022206803F0E0
:100850004CF884F89052002070BD022070BD2DE944
:10086000F04704685FEA42480B788D69B4F850801D
:100870004FF0000C4BF68F7748F2800648F68F79E0
:1008800048F2C00A444428D540F2024808EBC308A5
:1008900034F80840C4F30904A54203D32D1B8D612D
:1008A00002D00BE0C1F818C0D0F800C03CF82350CB
:1008B0003D4085F4005535432CF82350520609D5A8
:1008C0000B78056835F8232002EA090242EA0A0299
:1008D00025F8232074B30A8927E040F2064808EB84
:1008E000C30834F80840C4F30904A54203D32D1B00
:1008F0008D6102D00BE0C1F818C0D0F800C03CF800
:1009000023503D4085F4005535432CF823505206C2
:1009100009D40D78036833F8252002EA090242EA77
:100920000A0223F825202CB14A8949690068234628
:1009300003F0B3FA2046BDE8F0872DE9F0470546FD
:1009400000680C465FEA42681646D1F818C0227863
:10095000B0F8508048F68F774CF280094FF400438E
:100960004FF6FF7A4FF00001404472D540F2024842
:1009700008EBC20830F80800C0F30900844514D918
:10098000BCEB000CC4F818C010D0760408D5D5F81C
:1009900000C03CF822603E4046EA09062CF822607E
:1009A00094F82420012A47D056E1A161607810B163
:1009B000012813D01AE02868B0F85030184400EB32
:1009C000C200B0F80224C2F30902A0F80224B0F871
:1009D000022442F40042A0F8022407E02868B0F89C
:1009E0005030184400EBC200A0F802146278286866
:1009F00012B1012A11D018E0B0F850100844217843
:100A000000EBC100B0F80614C1F30901A0F8061408
:100A1000B0F8061441F4004105E0B0F8502010444D
:100A2000227800EBC200A0F8061421782846FFF7D0
:100A3000B1FE70046ED40FE1626902446261E26942
:100A40000244E2612669226AB24203D33046111A97
:100A500004E040E084F824100AB110462162617875
:100A600011B101292BD033E02968B1F8502011448D
:100A7000227801EBC201B1F80224C2F30902A1F805
:100A8000022401F202413E2809D94209C60600D1DA
:100A9000521E0E8843EA822216430E8018E048B1A7
:100AA0004208C30700D0521C0B880AEA8222134373
:100AB0000B800DE00A8842F400420A8008E02968B1
:100AC000B1F850201144227801EBC201A1F80204D0
:100AD00083B22289BCE040F2064808EBC20830F835
:100AE0000800C0F30900844515D3BCEB000CC4F822
:100AF00018C011D0760408D4D5F800C03CF82260A4
:100B00003E4046EA09062CF8226094F82420012A87
:100B100051D0A1E045E0A161607810B1012813D067
:100B20001AE02868B0F85030184400EBC200B0F862
:100B30000224C2F30902A0F80224B0F8022442F40D
:100B40000042A0F8022407E02868B0F850301844AA
:100B500000EBC200A0F802146278286812B1012AE2
:100B600011D018E0B0F850100844217800EBC10013
:100B7000B0F80614C1F30901A0F80614B0F8061481
:100B800041F4004105E0B0F850201044227800EB19
:100B9000C200A0F8061421782846FFF7FBFD700478
:100BA0005AD421782A6832F82100384040EA0900F6
:100BB00022F8210050E0626902446261E269024465
:100BC000E2612669226AB24203D33046111A2162D9
:100BD00004E00AB11046216284F824106278296882
:100BE00012B1012A2AD031E0B1F850201144227804
:100BF00001EBC201B1F80624C2F30902A1F80624F0
:100C000001F206413E2809D94209C60600D1521E0A
:100C10000E8843EA822216430E8017E048B142084C
:100C2000C30700D0521C0B880AEA822213430B80B0
:100C30000CE00A8842F400420A8007E0B1F8502034
:100C40001144227801EBC201A1F80604628983B243
:100C50006169286803F03CF921782A6832F821009C
:100C600048F6BF73184080F0300048F28003184304
:100C700022F821000020BDE8F08701F0070101EB18
:100C8000810100EBC100D0F86C0170472DE9F04103
:100C900004460F0601F0070000EB800104EBC101E0
:100CA0004FF001064FF0000502D54E74103103E0FD
:100CB00081F8515101F5A871022B08700A61CB70BF
:100CC00000D10D7194F89002012809D084F8906247
:100CD000206802F01DFC284684F89052BDE8F0819F
:100CE0000220FBE710B501F0070404EB840100EBE0
:100CF000C101C1E959230022C1F86C2181F85121B9
:100D000081F85041006801F5A87102F043FE00200F
:100D100010BD70B5044601F007002279904201D958
:100D2000012070BD0B064FF000054FF0010206D503
:100D300000EB800104EBC1014A74103107E001EBC4
:100D4000810104EBC10181F8515101F5A8718A704C
:100D5000087094F89002012808D084F89022206846
:100D600002F0FFFD84F89052002070BD022070BD9B
:100D700010B501F0070404EB840100EBC101C1E9E7
:100D80000923012281F834200B630023CB624A74CB
:100D900001F8104F006802F0FDFD002010BD10B5F5
:100DA0000446006803F076F8010404D52046BDE847
:100DB000104001F097BA41050ED5206830F8441F65
:100DC00021F480610180204600F000F92046BDE852
:100DD0001040002100F026B9410405D5206830F804
:100DE000441F21F480417DE0810405D5206830F85E
:100DF000441F21F4005175E0C1041FD5206830F86C
:100E0000401F21F004010180206830F8401F21F0CC
:100E10000801018094F8C802012806D1002084F856
:100E2000C80201462046FFF775FC204600F0E2F8B4
:100E3000206830F8441F21F4805153E0010512D599
:100E4000206830F8401F41F008010180206830F828
:100E5000441F21F400610180206830F8401F41F0F8
:100E6000040101800AE0010629D5206830F8441FFA
:100E700021F08001018094F8C80218B1204600F0EA
:100E800001F910BD206830F8401F41F004010180D5
:100E9000206830F8401F41F008010180012084F8EB
:100EA000C8022068B0F854003C2101EA9000C4F860
:100EB000CC022046BDE810400121FFF72BBC810584
:100EC00009D5206830F8441F21F4007101802046C4
:100ED00000F0A4F810BDC005FCD5206830F8441F10
:100EE00021F48071018010BD70B5040004D094F825
:100EF0009102002510B106E0012070BD84F89052E7
:100F0000204600F03FF8032084F89102206802F0A8
:100F1000E4FC002001260BE000EB800104EBC101A2
:100F20004E740874CD740D624D62401CC0B28D6267
:100F300021798142F0D8002012E000BF00EB80014F
:100F400004EBC10181F8515181F8500181F85351EE
:100F5000C1F86051C1F86451401CC0B2C1F8685179
:100F600021798142EAD894E8070002F0ADFC2573AC
:100F700084F89162A07A012802D12046FFF7B8FBDD
:100F8000002070BD08B500680E49884218D10E488F
:100F900050F8881F21F0406140F83019016841F491
:100FA000000101600068002200F4000000900F21A1
:100FB0001420FFF76BFBBDE808401420FFF758BB77
:100FC00008BD0000005C00400010024070B50446FF
:100FD00040790125022801D0FFF7EFFA2946D4F81D
:100FE000D80202F04AF8D4F8D802BDE8704001F007
:100FF000FDBF000010B50446407A30B106480168D4
:1010000021F00601016001F047FBD4F8D802BDE8E9
:10101000104002F018B8000010ED00E0D0F8D8023F
:1010200002F01BB810B5044690F8900201280AD0CF
:10103000012084F890022173206802F042FF002012
:1010400084F8900210BD022010BDD0F8D82200F51F
:101050002671104602F01DB810B5044690F89002B3
:1010600001280CD0012084F89002206802F003FFD0
:10107000206802F022FC002084F8900210BD0220BB
:1010800010BD000010B50446D0F8D80202F043F8B5
:10109000607A002804D00348016841F0060101602D
:1010A00010BD000010ED00E00248816841F480416D
:1010B00081607047007000400248016B21F001011F
:1010C000016370470000014003490A6B22F00202ED
:1010D00002430A63704700000000014010B5401E43
:1010E000B0F1807F01D3012010BD4FF0E02460619A
:1010F0000F21601702F01DFF0020A0610720206172
:10110000002010BDFEE70000F0B500230A243025C2
:1011100037261F4611E000BFB4EB107F02D905EB64
:10112000107C01E006EB107C01F813C001EB430CCE
:1011300000015B1C8CF80170DBB29342ECD3F0BD74
:1011400030B54FF0A0444B68A46800220E4D04F067
:101150000104AD6805F001052C4302D001221046C0
:1011600030BD0A4D53B10C681C43D1E902310B4329
:1011700081681C4329400C438460F0E78368096858
:101180002B400B438360EAE700010050E030C0FFD2
:1011900010B54B688468002214F0010F02D00122C0
:1011A000104610BD33B1D1E902342343C46824F0A2
:1011B000047403E0C368CC6823F004732343C36062
:1011C000D1E900310B43C16C6FF308010B43C364D9
:1011D000E6E70C2202EA91110844D0F8800080B2C0
:1011E000704710B5C36C01F01F011F248C40C2F37F
:1011F0008462A3438A401343C36410BD30B583683F
:10120000002213F0010F02D00122104630BDD1E9B7
:10121000003423438968C4684CF21805AC43214369
:101220000B43C360F1E7000070B54C68836800228F
:1012300013F0010F02D00122104670BD002C0E4B9E
:101240000C6807D08D682C43D1E9035635432C43F5
:101250004D6904E0CD682C43D1E9045635432C4355
:10126000C5681D402C43C4604968036B23F00F031D
:101270000B430363E0E700001CC0F0FF042303EA14
:10128000D15310B518444369C1F3045107248C406D
:10129000A3438A401343436110BD000010B550F8CA
:1012A000B03FC1F31204A34302F01804024AE24023
:1012B0000A401343036010BDFFFF0700D0F8C020B1
:1012C0006FF30D020A43C0F8C020026922F4803295
:1012D00001B1012142EA0141016170478268044B7A
:1012E00001F080411A400A4342F00041816070479A
:1012F000C0FFFF3F044908B5CA6C0243CA64C96C09
:101300000140009108BD00000010024030B50368A4
:101310000022DB0F02D00122104630BDD1E900349B
:101320002343D1E902452C43096923430B43016858
:10133000024C21400B430360EEE700000F7E00FFEC
:10134000F0B5002501F010030126946807689E405F
:10135000BE430FD054B30668C02C0DD040F6FC71CC
:1013600099408E4311682143D468214399400E432C
:10137000066023E001252DE0C0249C40A6432643BF
:101380000660046E40F60F769E40B44316685768B8
:10139000B608BF0846EA07269E4034430466C1F3F8
:1013A000C01100EB8101D4688C6507E00168FC2462
:1013B0009C40A14314689C4021430160C46B0721F9
:1013C00099408C43D2E90416926931431143994004
:1013D0000C43C4632846F0BDF0B50A680F2692FAA4
:1013E000A2F2B2FA82F303248AE001259D402A404A
:1013F0007ED04D68012D01D0022D20D18D688768E7
:1014000092FAA2FCBCFA8CFC4FEA4C0E04FA0EFCD9
:1014100027EA0C0792FAA2FCBCFA8CFC4FEA4C0CAF
:1014200005FA0CF52F438760CF680D68D0F804C02B
:101430002CEA050C7D434CEA050CC0F804C00F698A
:10144000D0F80CC092FAA2F5B5FA85F54FEA450E30
:1014500004FA0EF52CEA050C92FAA2F5B5FA85F518
:101460006D00AF404CEA070CC0F80CC04D68022D6F
:101470002FD1FF2A15D8D1F814C0056A92FAA2F725
:10148000B7FA87F7BF0006FA07F7BD4392FAA2F74B
:10149000B7FA87F7BF000CFA07FC45EA0C050562AE
:1014A00017E0D1F814E0476A150A95FAA5FCBCFAD2
:1014B0008CFC4FEA8C0C06FA0CFC95FAA5F5B5FAF3
:1014C00085F5AD0027EA0C070EFA05FE47EA0E0780
:1014D00047624D68076892FAA2FCBCFA8CFC4FEA9E
:1014E0004C0C04FA0CFE27EA0E0792FAA2F200E076
:1014F00005E0B2FA82F2520095402F4307605B1C70
:101500000A6832FA03F57FF470AF0020F0BD0000E6
:10151000064A10B552F8881FC0F3044303249C40C8
:10152000C0B2A14398400143116010BD00100240B9
:1015300003498A6822F0F00202438A607047000083
:101540000010024001490860704700000C000020B4
:101550000A7B8B681A434B6822F480621A430B683B
:1015600022F400621A43CB8922F480521A430B6999
:1015700022F400521A43CB6A22F480421A434B6988
:1015800022F470221A438B6922F080521A430C4BCA
:10159000984202D00B4B98420FD14B6A22F4700252
:1015A0001A43CB6922F080721A430B6A22F0007250
:1015B0001A43896A22F000520A43426400207047AD
:1015C000002C0140003401402DE9F0430268224B19
:1015D000224D234E234C4FF08049984207D0484576
:1015E00005D0A84203D0B04201D0A04203D14F6839
:1015F00022F070023A431C4FDFF870C0DFF87080B1
:1016000098420DD048450BD0A84209D0B04207D02F
:10161000A04205D0B84203D0604501D0404503D177
:10162000CD6822F440722A4302608A68C2620A8846
:101630008262984207D0A04205D0B84203D06045EC
:1016400001D0404501D109690163416941F00101BF
:1016500041610020BDE8F083002C014000040040FF
:1016600000080040003401400040014000440140B7
:1016700000480140012922D0042922D0102922D07B
:10168000402922D0B1F5807F21D0B1F5806F20D0E4
:10169000B1F5805F1FD0B1F5804F1ED0B1F5803F0E
:1016A0001DD009210F4A1830525C104402680D4BBE
:1016B0000A335B5C042199408A4302607047002131
:1016C000F0E70121EEE70221ECE70321EAE704213C
:1016D000E8E70521E6E70621E4E70721E2E708213C
:1016E000E0E70000024B0008012922D0042922D0A3
:1016F000102922D0402922D0B1F5807F21D0B1F528
:10170000806F20D0B1F5805F1FD0B1F5804F1ED023
:10171000B1F5803F1DD009210F4A1830525C1044AA
:1017200002680D4B0A335B5C082199400A43026052
:1017300070470021F0E70121EEE70221ECE70321E9
:10174000EAE70421E8E70521E6E70621E4E70721C7
:10175000E2E70821E0E70000024B00082DE9F0472E
:101760008C460121BCF5805F25D009DCBCF1010F5E
:1017700014D0BCF1100F15D0BCF5807F16D116E047
:10178000424B434C434D444E444F4FF00009BCF58F
:10179000803F14D0BCF5801F74D141E0114600F0A9
:1017A00067FC02E0114600F0AFFC01466AE011461A
:1017B00000F0FAFCF9E7114600F044FDF5E7016A94
:1017C00021F480310162D0F820C0016DDFF8D080B3
:1017D0002CF4003C01EA0801D2F80080984241EA6A
:1017E0000801B2F810804CEA084CB2F804802CF4DE
:1017F000803C4CEA084C07D0A04205D0A84203D058
:10180000B04201D0B84206D14368946923F48033D2
:1018100043EA042343600165D168826C81642EE051
:10182000016A21F480110162D0F820C0016DDFF857
:1018300074802CF4001C01EA0801D2F80080984260
:1018400041EA0821B2F810804CEA085CB2F8048042
:101850002CF4801C4CEA085C07D0A04205D0A842BA
:1018600003D0B04201D0B84206D14368946923F452
:10187000802343EA842343600165D168C164C0F8D2
:1018800020C049460846BDE8F0870000002C014012
:101890000034014000400140004401400048014044
:1018A0008FFFFEFFFF8FFFFE70B598B000241494E9
:1018B0001594182106A81694FEF7C7FD11941294EA
:1018C000139410940C940D940E94182168460F9460
:1018D000FEF7BBFD5E48FFF71BFE4FF40050FFF71D
:1018E00009FD0220FFF706FD02200325CDE90005D2
:1018F000584E694604943046FFF76EFD4FF4006081
:10190000CDE90005694604943046FFF765FD4FF4C4
:101910008050CDE90005694604943046FFF75CFD30
:101920004D4800680022C0F30220032100F086FB2E
:101930000146122002F0EDFA122002F0DDFA4FF01B
:10194000A0451494159414A928461694FFF756FC44
:1019500006940794089409940A9406A928460B94BF
:10196000FFF762FC00212846FFF7A8FC286940F237
:101970000341884328614FF44030CDE9100410A999
:101980003648FFF7DDFBA0200C900120CDE90D04C7
:101990000CA928460F94FFF7FBFBE8683049084084
:1019A00040F00040E860E86C20F4C07040F48070C3
:1019B000E864A8682B490840A860A8682A4908403C
:1019C00040F08050A860294829490068B0FBF1F038
:1019D00000EB800080000A21B0FBF1F000E0401E27
:1019E0000028FCD12448234C016821F4F86141F41B
:1019F00030710160012221462846FFF73FFC7F221B
:101A000021462846FFF74AFC1C4C0921224628465D
:101A1000FFF7E7FB012221462846FFF72FFC7F2234
:101A200021462846FFF73AFC154C40F20F1122469A
:101A30002846FFF7D6FB012221462846FFF71EFC69
:101A40007F2221462846FFF729FC18B070BD000010
:101A500002001C00000400480CED00E000030050F0
:101A6000FFFFDF7FC0FFFF5FC0FFFF7F0C00002094
:101A7000400D03000008302E300000500040C03AF6
:101A80000010603230B593B00024109411941821E6
:101A900006A81294FEF7D9FC0C940D940E9418210C
:101AA00068460F94FEF7D1FC4C48FFF731FD4FF428
:101AB0000050FFF71FFC0120FFF71CFC0420FFF77C
:101AC00019FC40200325CDE90005694604944FF038
:101AD0009040FFF781FC1020CDE900056946049491
:101AE0003F48FFF779FC3F4800680022C0F302201E
:101AF000032100F0A3FA0146122002F00AFA122094
:101B000002F0FAF9384D1094119410A92846129455
:101B1000FFF774FB0794089409940A9406A92846D1
:101B20000B94FFF781FB00212846FFF7C7FB2869CC
:101B300040F2034188432861A0200C900120CDE9A8
:101B40000D040CA928460F94FFF722FBE8682749EB
:101B5000084040F00040E860E86C20F4C07040F4B9
:101B60008070E864A86822490840A860A8682149F4
:101B7000084040F08050A8601F4820490068B0FB32
:101B8000F1F000EB800080000A21B0FBF1F000E0F2
:101B9000401E0028FCD11A4C092122462846FFF796
:101BA00020FB012221462846FFF768FB7F222146C1
:101BB0002846FFF773FB224640F20F112846FFF735
:101BC00010FB012221462846FFF758FB7F222146C1
:101BD0002846FFF763FB13B030BD000002001C0075
:101BE000000800480CED00E000010050FFFFDF7F1F
:101BF000C0FFFF5FC0FFFF7F0C000020400D03000F
:101C00000800900C10B58CB014216846FEF71DFC3E
:101C1000182105A8FEF719FC0220FFF76BFB022034
:101C2000059003200024069005A909941448FFF7A5
:101C3000D3FB4FF480700090502001904FF4E020CF
:101C4000CDE9020469460F480494FFF75FFB0E4894
:101C50000E490068B0FBF1F0C821484300E0401E87
:101C60000B900028FBD10A48016821F400110160A3
:101C7000001F016821F4001101600CB010BD0000CC
:101C800000040048000201400C00002080841E0077
:101C90000404014010B588B01C216846FEF7D5FB4E
:101CA0004FF48030FFF726FB0F4C0E49E26B00200B
:101CB00022F40072E26302220492009001900290EA
:101CC0000122CDE905206A462046FFF739FB20684E
:101CD00020F002002060E06B20F48070E06308B028
:101CE00010BD000001001102000800502DE9F04372
:101CF00087B018216846FEF7A8FB0420FFF7FAFA20
:101D00002020FFF7F7FA0120FFF7F4FA0220FFF78F
:101D1000F1FA2C4E4FF40050B0624FF48049C6F8EF
:101D200028908700B762DFF8A0800121C8F828104A
:101D3000C8F82890C8F8287000900024CDE9011454
:101D40000D460394694630460494FFF745FBCDF8F1
:101D50000090CDE901540394694630460494FFF79E
:101D60003BFB0097CDE90154039469463046049447
:101D7000FFF732FB0820CDE9000469464FF09040A0
:101D80000494FFF729FB0095CDE9015403946946BB
:101D900040460494FFF720FBCDF80090CDE90154B4
:101DA0000394694640460494FFF716FB0097CDE97B
:101DB00001540394694640460494FFF70DFB07B0B5
:101DC000BDE8F08300080048000400482DE9F04118
:101DD000A0B014211AA8FEF738FB202106A8FEF7B0
:101DE00034FB30210EA8FEF730FB18216846FEF7C1
:101DF0002CFB6448016E41F400610166006E002412
:101E000000F400601F90ADF8684042F23310CDE955
:101E10001B405D4D1D941AA928461E94FFF7D4FB64
:101E2000286820F080002860A86858490840A86009
:101E300001212846FFF758FC6020CDE906040894EC
:101E400009940A940B940C9406AA012128460D9437
:101E5000FFF784FC01212846FFF70CFC10212846DF
:101E6000FFF742FC06AA10212846FFF777FC102155
:101E70002846FFF7FFFB4FF4807841462846FFF7DE
:101E800033FC06AA41462846FFF768FC414628462F
:101E9000FFF7F0FBAF1439462846FFF725FC06AAEA
:101EA00039462846FFF75AFC39462846FFF7E2FB39
:101EB0006868374908406860686820F4700040F43A
:101EC000E0006860A86820F08000A8602E48022129
:101ED0006030026891FAA1F3B3FA83F3461591FAE0
:101EE000A1F103F01F03B1FA81F106FA03F301F047
:101EF0001F019A4304FA01F10A430260016841F0AC
:101F00000201016040148DF8444012900E940F9429
:101F10001094ADF846708001CDE913048001CDE93D
:101F20001540179418940EA928461994FFF710FB32
:101F30000120FFF7DFF9CDF800800225CDE901543B
:101F40000627CDE904474FF0904869464046039480
:101F5000FFF742FA0096CDE90154CDE904476946FE
:101F600040460394FFF738FA68020090CDE9015427
:101F7000CDE90447694640460394FFF72DFA20B0A7
:101F8000BDE8F08100100240002C0140F8BFFEFFC8
:101F90008FFFFFFD10B500220F49104800F00CFF25
:101FA00008B1FEF70AFB0E490C4801F0DCF808B155
:101FB000FEF703FB0B49094800F04AFD08B1FEF7A4
:101FC000FCFA064801F04AF9002803D0BDE81040A9
:101FD000FEF7F3BA10BD00001000002054070020E7
:101FE000540100206400002070B59FED120A0329FF
:101FF0001ED300234E1E14E00022CD1A6D1E0DE0EC
:1020000000EB820494EC020AB4EEE00AF1EE10FA5E
:1020100003DDC4ED000A84ED010A521C9542EFDC99
:102020005B1CB342E8DB490800EB810090ED000A3D
:1020300070BD000000000000FEE7FEE730B500F0D4
:102040000703C3F10704042C00D90424181D072832
:1020500001D2002300E0DB1E012505FA04F0401E3A
:10206000084098409D406D1E1540284330BD00003B
:1020700030B5026A22F001020262036A4468826992
:102080001B4D22F003022A400D6823F002032A436D
:102090000D692B434D6823F001032B43154DA842D6
:1020A0000BD0154DA84208D0144DA84205D0144DB0
:1020B000A84202D0134DA84212D14D6923F0080363
:1020C00043EA85038D6823F0040343EA85038D69A1
:1020D00024F480742C43CD6924F4007444EA45044C
:1020E00044608261C96841630362002030BD000022
:1020F0008FFFFEFF002C01400034014000400140F2
:10210000004401400048014030B5026A22F010024C
:102110000262056A426883691D4C23F440732340C0
:102120000C6843EA042425F020030D6943EA0513F3
:102130004D6823F0100343EA0513164DA8420BD057
:10214000154DA84208D0154DA84205D0144DA842FF
:1021500002D0144DA84213D14D6923F0800343EA05
:1021600085138D6823F0400343EA85138D6922F4BB
:10217000806242EA8502CD6922F4006242EAC50229
:1021800042608461C96881630362002030BD000041
:10219000FF8FFFFE002C0140003401400040014051
:1021A000004401400048014030B5026A22F48072C8
:1021B0000262046A4368C2691C4D22F003022A408D
:1021C0000D6824F400742A430D6944EA05244D681F
:1021D00024F4807444EA0524154DA8420BD0154D13
:1021E000A84208D0144DA84205D0144DA84202D0F0
:1021F000134DA84213D14D6924F4006444EA8524A8
:102200008D6824F4806444EA85248D6923F4805326
:1022100043EA0513CD6923F4005343EA45134360B1
:10222000C261C968C1630462002030BD8FFFFEFF38
:10223000002C0140003401400040014000440140B6
:102240000048014030B5026A22F480520262056AF9
:102250004268C3691D4C23F4407323400C6843EA71
:10226000042425F400530D6943EA05334D6823F433
:10227000805343EA0533164DA8420BD0154DA842B2
:1022800008D0154DA84205D0144DA84202D0144DD7
:10229000A84213D14D6923F4004343EA85338D6886
:1022A00023F4804343EA85338D6922F4804242EA75
:1022B0008512CD6922F4004242EAC5124260C4612F
:1022C000C96801640362002030BD0000FF8FFFFE7B
:1022D000002C014000340140004001400044014016
:1022E000004801402DE9F84F044640F68F7A40F24D
:1022F000064B48F60F784FF00009B5E1B0F84410EE
:1023000011F00F053AD030F8256031047DD530F852
:10231000251001EA0A0141F0800120F8251005EBA3
:10232000850004EBC00797F85C0107F5A877002843
:102330006CD0F87802286AD03978226832F8210007
:1023400048F68F73184048F2C003184322F8210062
:102350003878D4F800C03CF820104904BCF850107C
:1023600001EB0C027ED540F2024101EBC000105A95
:102370008005800D009076D03A89D0E0C9062AD435
:10238000018801EA080141F400410180206804F15C
:102390001005B0F85010227C014440F2024000EBDE
:1023A000C200085AC0F30900E062616A0844606232
:1023B00000212046FEF7EEF9207B00289DD0A86979
:1023C00000289AD1207B40F080012068A0F84C10B2
:1023D00084F80C9048E1018804F5A8750A051ED51B
:1023E000B0F850102A7801440BEBC200085A04F5EB
:1023F0002671C0F30903EB61EA88206801F04DFD06
:102400002168088800EA0A0002E0A4E068E077E0BA
:1024100040F0800008802046FEF717FE24E1090402
:10242000D8D5018801EA0A0141F0800101802068C5
:10243000B0F850100A1828780BEBC000105A83052A
:102440009B0DEB610DD0696959B1EA88206801F0F4
:1024500024FDE96968690844686100212046FEF7A7
:10246000A2F901E053E051E0206801880A05B1D4E7
:10247000C1F301310329ADD0B0F850100844B0F8D1
:102480000614C1F30901A0F80614296900F20640F8
:102490003E2909D94A09C90600D1521E01884FF4C4
:1024A000004343EA822209E0B1B14A08C90700D0DB
:1024B000521C01884FF6FF7303EA82221143018008
:1024C000216808884BF68F72104080F4405048F223
:1024D000800210430880C7E0018841F40041EEE724
:1024E0002068B0F850103B780A180BEBC301515A22
:1024F0008905890D009117D0FA887969009B11E050
:10250000324639462046FEF7AAF900900CE00BEB64
:10251000C000105A8005800D009005D07A890346CE
:102520006046796901F0B9FCF96900980844F861DE
:102530007969009808447861B86918B139690098D8
:10254000814204D939782046FEF72DF903E0394657
:10255000206801F01FFA30062DD505EB850004EB4D
:10256000C001206830F8252002EA080242F4004247
:1025700020F82520C87C103101281DD0F0056FD42B
:102580002268B2F8500083180A7840F2024000EB4B
:10259000C200185A8A69C0F30900824258D9121A37
:1025A0008A6157D04A6902444A61CA691044C861C5
:1025B000206801F0EFF957E0C1F818900A7B48460F
:1025C0001AB3720622D54A7812B1012A14D041E01A
:1025D0002068B0F8502010440A7800EBC200B0F830
:1025E0000224C2F30902A0F80224B0F8022442F443
:1025F0000042A0F802242DE02268B2F850301A44BC
:102600000B7802EBC302A2F8020423E04B782268A5
:1026100013B1012B13D01DE0B2F8500010440A781A
:1026200000EBC200B0F80624C2F30902A0F80624A9
:10263000B0F8062442F40042A0F806240AE0B2F8FA
:1026400050301A440B7802EBC302A2F8060401E0F2
:10265000C1F8189009782046FEF79CF804E0FFE7DF
:1026600032462046FEF769F92068B0F844100904A4
:102670003FF544AE0020BDE8F88F70477047017801
:10268000407841EA0020704710B5FDF799FFBDE89A
:10269000104001F0C7BE0000374810B5016821F0B6
:1026A0000F0141F004010160016801F00F010429EC
:1026B000FAD1324850F8801F21F480710160304C0B
:1026C000206840F4803020602068C0F3404000283B
:1026D000FAD0D4F8980040F00100C4F8980000BF88
:1026E000D4F89800C0F340000028F9D0E16845F222
:1026F0001350244A11400843E060E06840F08070C5
:10270000E060206840F0807020602068C0F3406086
:102710000028FAD0A06840F00300A0608020FEF7F7
:1027200007FFA06800F00C000C28FAD116480168D9
:1027300041F0807101601548016841F001010160BC
:102740000021416041686429FCD30020FEF7F0FEBF
:10275000A06820F4E060A060A06820F46050A06051
:102760000B48FEF7EFFE0420FDF742FF002801D0E2
:1027700072B6FEE710BD000000200240007000406D
:10278000001002400C80FFF9FCED00E0001000E0BA
:1027900080FE210A0248016841F47001016070471F
:1027A00088ED00E010B50A46024903A000F0D4FA13
:1027B000004810BD240A002043444320436F6E6646
:1027C000696700002DE9F0410C46D0F8C422D0F82A
:1027D000BC12E9B104EB840600EB86050027AB6967
:1027E0003BB102EBC602126AB3FBF2F602FB1632F1
:1027F00082B1C1F81472D0F8C00203692BB1D1F8CC
:102800000802224601F5047198470020BDE8F081D6
:102810000320FBE700231A462146AF6100F084FC49
:10282000F3E770B5D0F8BC4205466CB100F073FB1D
:10283000C4F80C02D5F8C012D4F80402CA6804F532
:1028400003719047002070BD032070BD70B5044631
:10285000812100F0CDFA002525870121204600F0D6
:10286000C7FAA4F878518221204600F0C1FAA4F8F2
:102870004C50A4F84E50D4F8BC0248B1D4F8C00271
:1028800004F52F7440688047206800F03CFE256006
:10289000002070BD122008800048704734000020DE
:1028A00010B5D0F8BC4284B1D0F8C01259B194F838
:1028B0000002FF2807D08B6894F801222146984730
:1028C000FF2084F80002002010BD032010BD00008E
:1028D0000A210180004870477C00002043210180CC
:1028E00000487047CC000020432101800048704719
:1028F000880000204321018000487047100100201B
:102900002DE9F04704464FF4077000F0FDFD050087
:102910004FF0000735D0C4F8BC52207C4FF01008AF
:102920004FF40079012680B3402302228121204602
:1029300000F047FB2687402302220121204600F0B9
:1029400040FBA4F87861A4F84E800823032282217A
:10295000204600F036FBA4F84C60D4F8C0020068B2
:102960008047C5F81472C5F81872207CD5F8042287
:10297000A8B140230121204600F02FFB0020BDE834
:10298000F0870220C4F8BC72F9E7FFE74B46022249
:102990008121204600F015FB26874B46CCE74B46AD
:1029A000E8E7000010B50A46024903A000F0D4F998
:1029B000004810BD240A002043444320496E74653A
:1029C000726661636500000004200880004870475B
:1029D0003000002010B50A46024903A000F0BCF9FF
:1029E000004810BD240A002053544D6963726F657E
:1029F0006C656374726F6E696373000010B50A468C
:102A0000024903A000F0A8F9004810BD240A0020E4
:102A100053544D3332205669727475616C20436F84
:102A20006D506F727400000010B5D0F8BC1251B137
:102A3000027C002AD1F8042207D04023012100F0B3
:102A4000CCFA002010BD032010BD4FF40073F5E751
:102A500019B1C0F8C0120020704703207047000071
:102A600010B51A2008800A480168001D0468001D7E
:102A70000068081809D008220649FEF745FB0549F9
:102A8000042210312046FEF73FFB0248801E10BD95
:102A90009075FF1F4A000020D0F8BC0218B1C0F8A2
:102AA00004120020704703207047D0F8BC0228B100
:102AB000C0F81022C0F808120020704703207047A9
:102AC0002DE9FC410646D0F8BC7200200C468DF87A
:102AD0000000ADF80400054637B1207810F0600121
:102AE00028D0202944D102E00320BDE8FC81E288FF
:102AF000C2B1000660780AD5D6F8C0128B68394694
:102B00009847E288072A00D90722394628E087F843
:102B10000002A07987F80102E2883946304600F0C9
:102B20006CF82AE0D6F8C012607800228B68214643
:102B3000984722E0607830B101281ED00A2809D0D9
:102B40000B2815D110E096F89C02032810D1022220
:102B500001A905E096F89C02032809D101226946E3
:102B6000304600F064F808E096F89C02032804D090
:102B70002146304600F036F803252846B5E710B563
:102B8000D0F8BC12012219B1D1F8143213B10FE000
:102B9000032010BD0122C1F81422D1F81022C26214
:102BA000D1F81032D1F80822812100F0BDFA0022BC
:102BB000104610BD10B5D0F8B8220AB1526890473F
:102BC000002010BD134610B50A46002100F005FA9A
:102BD000002010BD134610B50A46002100F0A4FAEB
:102BE000002010BD10B50446802100F082FA204676
:102BF000BDE81040002100F07CBA10B50323C0F8F6
:102C00009432C0F858211346C0F85C210A460021CE
:102C100000F0E3F9002010BD10B50521C0F89412B2
:102C200000231A46194600F0D8F9002010BD10B54F
:102C30000223C0F8943282611346C2610A46002121
:102C400000F072FA002010BD10B50421C0F89412F3
:102C500000231A46194600F067FA002010BDF8B5A7
:102C600004460020ADF8000048880D46010A0629F8
:102C700047D006DC01290FD0022912D0032962D1E6
:102C80001DE0072946D00F295DD1D4F8B402C269EE
:102C900020E0694690473BE0D4F8B412207C0A68F3
:102CA000F7E7207C02260028D4F8B80205D0C16AD4
:102CB000684688470146467036E0816AF8E7C0B248
:102CC000062840D2DFE800F003090D111519D4F8E9
:102CD000B4024268B2B3207CDBE7D4F8B402826865
:102CE000F8E7D4F8B402C268F4E7D4F8B402026991
:102CF000F0E7D4F8B4024269ECE7D4F8B402826990
:102D0000E8E7207CF0B9D4F8B802416B6846884700
:102D1000014609E0207CA8B9D4F8B802016B6846E6
:102D20008847014607204870EA888AB1BDF800004C
:102D300040B1824200D90246ADF800202046FFF79C
:102D400076FFF8BDFFE729462046FFF74BFFF8E77F
:102D50002046FFF779FFF4E770B5002300281ED066
:102D60000025044602E06D1CEDB2641C2678002E9E
:102D7000F9D1022404EB450414801278CA545B1C78
:102D80000322CA5400245B1C06E0CA545B1CDAB25E
:102D90008C54521CD3B2401C0278002AF5D170BD6D
:102DA00001004FF0000004D0012901D0022901D018
:102DB000032070470120704778B10023C0F8B83273
:102DC000C0F8C032C0F8CC3209B1C0F8B412012149
:102DD00080F89C12027000F0A3B80320704710B571
:102DE000D0F8C402FDF70EFDBDE81040FFF7D8BFD4
:102DF00010B5D0F8C402FDF7E0FCBDE81040FFF7C5
:102E0000CFBF70B51646044621B194F89C02032842
:102E100041D048E0D4F8941204F1140000250229AE
:102E200032D1D0E902318B4206D95A1A826031463A
:102E30002046FFF7CFFE0FE0994214D14068884248
:102E400011D3D4F8981288420DD2002211462046A0
:102E5000FFF7C0FEC4F8985200231A4619462046D0
:102E600000F0BBF810E094F89C02032805D1D4F8D8
:102E7000B802C16809B1204688478021204600F089
:102E800038F92046FFF7C8FE94F8A00201280AD1BD
:102E900084F8A05207E0D4F8B80242691AB120467B
:102EA0009047002800D1002070BD10B5134604469D
:102EB00021B194F89C02032823D02AE0D4F894127C
:102EC00004F5AA70032924D1D0E9021291420AD94B
:102ED0008A1A8260C068824200D3024619462046A0
:102EE000FFF770FE15E094F89C02032805D1D4F892
:102EF000B802016909B1204688472046FFF7A4FEC1
:102F000007E0D4F8B80282691AB120469047002839
:102F100000D1002010BDD0F8C402FDF7AEBE000005
:102F200010B51E490446C1F8D802C0F8C4121C48A6
:102F300008600820087102204871C87100200872DA
:102F400048728872C8720846FDF7CEFF08B1FDF7D7
:102F500034FB0022D4F8C4021823114604F531745E
:102F6000FDF7FAFB5823002280212068FDF7F4FBCF
:102F7000C023002281212068FDF7EEFB4FF4887307
:102F8000002201212068FDF7E7FB4FF48073002247
:102F900082212068FDF7E0FB002010BD78040020AE
:102FA000005C00400A0601F07F01D0F8C40201EB8A
:102FB000810100EBC10001D5807C704790F852017F
:102FC000704710B51C461346D0F8C4022246FDF7E0
:102FD0005DFEBDE81040FFF7E3BE10B5D0F8C402B7
:102FE000FDF780FEBDE81040FFF7DABE70B50125A1
:102FF000044680F89C520020C4F894026060C4F833
:10300000A402D4F8B802E0B1D4F8BC1221B14268ED
:1030100012B100212046904700224023114620464D
:10302000FFF7CFFF4026A4F86451334600228021E9
:103030002046C4F86061FFF7C4FFA5840020266223
:1030400070BD032070BD90F89C12042903D190F844
:103050009D1280F89C120020704710B5D0F8B8126D
:1030600021B190F89C22032A02D004E0032010BD75
:10307000C96901B18847002010BD01740020704764
:1030800010B5D0F8C402FDF7CDFFBDE81040FFF742
:1030900087BE70B5044600F2AA20054600F04DF840
:1030A0000120C4F89402B4F8B002C4F8980294F86D
:1030B000AA0210F01F010AD001290ED0022912D055
:1030C00000F080012046BDE8704000F012B82946AB
:1030D0002046BDE8704000F0C3B829462046BDE850
:1030E000704000F0E7B929462046BDE8704000F086
:1030F00041B910B5D0F8C402FDF70BFEBDE8104091
:10310000FFF74EBE10B5D0F8C402FDF7A5FFBDE82D
:103110001040FFF745BE90F89C1280F89D120421E4
:1031200080F89C120020704710B5D0F8C402FDF75B
:103130001FFEBDE81040FFF733BE70B5054611F81D
:10314000010B2870087868704C1C2046FFF797FA2E
:103150006880A41C2046FFF792FAA880A01CFFF705
:103160008EFAE88070BD38B504460020ADF8000046
:1031700049B1C4F8B812C96A19B168468847C4F899
:10318000CC02002038BD032038BD02460320D2F80F
:10319000B832002B02D01B68104618477047000059
:1031A0002DE9F0410F462C4E8978002504463170F8
:1031B000012906D939462046FFF714FD0320BDE852
:1031C000F08194F89C0202280CD003281DD03946C7
:1031D0002046FFF707FD31782046FFF7EBFC03257B
:1031E0002846ECE799B320466160FFF7CEFF050063
:1031F00004D039462046FFF7F5FCF1E72046FFF7FB
:1032000023FD032084F89C02EAE74FF00208C1B1D5
:10321000606888421BD0C1B22046FFF7CBFC3178F2
:1032200020466160FFF7B1FF050010D03946204607
:10323000FFF7D8FC21792046FFF7BCFC84F89C827C
:10324000CEE784F89C8220466160FFF7B3FC2046FD
:10325000FFF7FAFCC4E7000078000020FFF752BF38
:103260002DE9F0410A78002512F0600208D0202AEA
:1032700001D0402A71D1D0F8B8229268904731E04D
:103280004B78002201260A2B67D2DFE803F0415E6B
:103290006658660805662D29FFF7E1FC5FE00446E5
:1032A0008888D8B9C888C8B94888802816D200F05C
:1032B0007F0794F89C02032810D084F89E72394648
:1032C0002046FFF7DDFE2046FFF7BEFC1FB10220BF
:1032D00084F89C0243E084F89C6240E020463CE095
:1032E000FFF75EFF05463AE0CB88012B35D190F819
:1032F0009C32012B04D0022B02D0032B2DD104E0F1
:103300008260012200F1080116E00122011D13E094
:1033100090F89C22012A03D0022A01D0032A1CD152
:10332000CA88022A19D1C660D0F8A41209B10321B3
:10333000C160022200F10C01FFF779FC0FE049881F
:1033400001290CD1C0F8A46211E090F89C32012B45
:1033500008D0022B06D0032B04D0FFF743FC2846ED
:10336000BDE8F08149880129F9D1C0F8A422FFF70E
:103370006BFCF4E72DE9F0410D4604462878002661
:10338000097910F060000BD0202801D040286DD1C1
:10339000D4F8B8022946826820469047064686E05F
:1033A0006878A8B3012822D003287CD194F89C0225
:1033B000022802D0032876D10BE0002973D080299F
:1033C00071D02046FFF795FE80212046FFF791FE41
:1033D0006DE0688838B931B1802904D0E88810B927
:1033E0002046FFF786FE2046FFF72EFC5FE094F8AC
:1033F0009C020228E1D0032855D16888A8BB480662
:1034000002D02046FFF7EBFC2046FFF71DFCBFE78C
:10341000FFE794F89C020027022802D0032842D13B
:1034200011E009B180293ED1080601F07F0000EBD0
:10343000800004EB800101D5143101E001F5AA718F
:1034400002220F602BE0080601F00F0000EB800065
:1034500004EB80000BD5808C40B101F07F0000EBC5
:10346000800004EB800514350CE020E01BE0B0F890
:103470006401C0B101F07F0000EB800004EB800527
:1034800005F5AA7541B1802906D02046FFF78AFDCF
:1034900010B10120286000E02F600222294620465A
:1034A000FFF7C5FB03E029462046FFF79BFB3046AC
:1034B000BDE8F08170B50646087800240D4610F08E
:1034C000600003D0202801D0402817D196F89C0234
:1034D000012803D0022801D003280FD12879012820
:1034E0000CD8D6F8B8028268304690470446E8887F
:1034F000204306D13046FFF7A7FB02E03046FFF736
:1035000071FB204670BD704700487047580200208C
:103510002DE9F0470C78002630F8243048F68F1259
:103520001340CA78002A78D0012A7CD0022A02D01F
:10353000032A75D0012648F28002134320F8243074
:103540000D7830F8253048F68F7423402B43134311
:1035500020F825300D7B48F2C00948F6BF734CF2C5
:10356000800A4BF68F77EDB3CD7891F800C0022D2D
:1035700030F82C507DD048F68F6805EA08051543D1
:1035800020F82C50B0F8505091F800C0054405EBDD
:10359000CC05B1F808C02CF0010CA5F800C4B0F8B7
:1035A000505091F800C0054405EBCC05B1F80AC0B5
:1035B0002CF0010CA5F804C44D78002D7ED00D78B8
:1035C00030F825C05FEA4C4C07D530F825C00CEA2E
:1035D000040C4CEA0A0C20F825C091F800C030F821
:1035E0002C5000E022E06D0606D530F82C50254026
:1035F00045EA090520F82C50CC780D78012C30F8DC
:10360000254004EA03047CD084F02003134320F80F
:103610002530C1E001E006E002E043F400738AE7F0
:1036200043F4C06387E743F4806384E74D784DB388
:10363000B0F850500F78054405EBC705CF8827F048
:103640000107A5F800740F7830F827506D0606D5ED
:1036500030F82750254045EA090520F82750CC7856
:10366000012C07D00C7830F82410194081F020018B
:1036700004E064E00C7830F824101940114320F87D
:10368000241090E0B0F850300D78034403EBC503EC
:10369000CD8825F00105A3F80454B0F850300D781A
:1036A000034403EBC503B3F80654C5F30905A3F8B7
:1036B00006540D6903F206433E2D00E045E00BD9A8
:1036C0004FEA551CED0601D1ACF1010C1D884FF4F9
:1036D000004848EA8C2C0BE035B34FEA550CED0757
:1036E00001D00CF1010C1D884FF6FF7808EA8C2CF4
:1036F00045EA0C051D800D7830F825305B0408D5AF
:1037000000E046E030F82530234043EA0A0320F881
:103710002530097861B130F821303B4083F4005303
:10372000134320F821303EE01D8845F40045E1E7D1
:103730000188394081F440511143018033E0254034
:1037400048F2801845EA08051AE791F800C030F8F9
:103750002C506D0406D530F82C50254045EA0A055A
:1037600020F82C5091F800C030F82C506D0606D58A
:1037700030F82C50254045EA090520F82C500D78EA
:1037800030F825403C4084F44054144320F8254050
:1037900070E7144320F825400B7830F823103940A7
:1037A000114320F823103046BDE8F0872DE9F0439F
:1037B00091F80C804F780A7848F6BF7C4BF68F79E9
:1037C00048F2800348F2C0054CF2800648F68F7438
:1037D000B8F1000F28D0002F30F822704FEA474789
:1037E00048D0002F05DA30F822702740374320F800
:1037F00022700A7830F822707F0605D530F82270E2
:1038000027402F4320F822700D7830F825202240E1
:10381000324320F825200C7830F8242002EA0C02EC
:103820001A4320F824201AE07FB130F8226076068F
:1038300005D530F8226026402E4320F822600A7811
:1038400030F8221001EA0C010EE030F822506D042D
:1038500005D530F822502540354320F822500A780B
:1038600030F8221001EA0901194320F82210002043
:10387000BDE8F083002F05DA30F822702740374387
:1038800020F822700A7830F82260760605D530F8E4
:10389000226026402E4320F822600E7830F8262041
:1038A00022402A4320F826200C7830F8242002EA0F
:1038B00009021A4320F82420C1E730F8581F41F4C8
:1038C0000041018000207047012120F8401F0021A5
:1038D0000180818001820846704730F8401F4BF616
:1038E0008072914301800020704730B50A7BB2BBE3
:1038F0004A7848F68F7548F28004C2B10B7830F8E8
:103900002320520607D530F823202A4048F2C0056C
:103910002A4320F82320CA78012A20D00A7830F8D8
:10392000221048F6BF73194081F0200114E00A7894
:1039300030F822305B0407D530F822302B404CF2AF
:1039400080052B4320F822300A7830F822104BF6FD
:103950008F73194081F44051214320F82210002038
:1039600030BD10B54A780978002A48F2800330F853
:10397000212005D048F6BF74224082F0100204E0F6
:103980004BF68F74224082F480521A4320F8212093
:10399000002010BD2DE9F0470D464B78097B044609
:1039A0004FF0000948F68F7248F2800A4FF4004742
:1039B0004FF6FF78012B09D000296FD0E878022854
:1039C0006DD001286CD00120BDE8F087AE69286970
:1039D000864200D9064691B1E97802291ED0286AAC
:1039E000801B2862287834F820104906B4F850105B
:1039F000214401EBC00073D5A0F8066416E1B3B210
:103A0000EA882046696900F063FAB4F85000297822
:103A1000204400EBC100A0F802640DE1296A814254
:103A200077D9297834F82100104048F280121043E9
:103A300024F82100286A801B2862287834F8201096
:103A40004906697871D511B101292AD030E0B4F85E
:103A50005010214401EBC000B0F80614C1F3090175
:103A6000A0F8061400F206403E2E07D97109F206AE
:103A700000D1491E028847EA812107E04EB1710852
:103A8000F20700D0491C028808EA81210A4302801B
:103A90000EE0018841F40041018009E0F1E020E1FD
:103AA00095E1B4F85020111901EBC000A0F80664AC
:103AB0006A89B3B22046696900F00AFA686930443D
:103AC00068612969286A884202D9801B286202E05D
:103AD0000646C5F82090687818B101282BD032E04E
:103AE0002FE0B4F850002978204400EBC100B0F872
:103AF0000214C1F30901A0F8021400F202403E2EA4
:103B000008D97109F20600D1491E028847EA8121CD
:103B100008E0A1E056B17108F20700D0491C028804
:103B200008EA81210A4302800DE00EE0018841F499
:103B30000041018007E0B4F850002978204400EBF0
:103B4000C100A0F802642A8971E011B1012927D0CF
:103B50002DE0B4F85010214401EBC000B0F802147D
:103B6000C1F30901A0F8021400F202403E2E07D969
:103B70007109F20600D1491E028847EA812107E057
:103B80004EB17108F20700D0491C028808EA812171
:103B90000A4302800BE0018841F40041018006E005
:103BA000B4F85010214401EBC000A0F802642A8947
:103BB000B3B22046696900F08BF9686930446861E6
:103BC0002969286A884202D9801B286202E00646D9
:103BD000C5F82090687810B1012836D026E0B4F8F6
:103BE00050002978204400EBC100B0F80614C1F35E
:103BF0000901A0F8061400F206403E2E07D971090B
:103C0000F20600D1491E028847EA812107E04EB141
:103C10007108F20700D0491C028808EA81210A4392
:103C2000028003E0018841F4004101806A89B3B257
:103C30002046696900F04CF9297834F8210048F6EB
:103C4000BF72104080F030000FE1B4F85010081936
:103C5000297800EBC100CFE62A7834F8220048F634
:103C60008F63184040EA0A0024F82200B4F850009C
:103C70002A78204400EBC2008BB2A0F802342A89D3
:103C8000D6E7A9692869814202D9091AA96102E027
:103C90000846C5F81890B4F850102A78214401EB72
:103CA000C201B1F80624C2F30902A1F8062401F208
:103CB00006413E287DD94209C00600D1521E08881F
:103CC00047EA82220AE0088840F4004007E0420800
:103CD000C00700D0521C088808EA822210430880DE
:103CE000BBE033BBB4F850002978204400EBC1009E
:103CF000B0F80214C1F30901A0F80214296900F216
:103D000002403E2907D94B09C90600D15B1E018834
:103D100047EA832307E041B14B08C90700D05B1C89
:103D2000018808EA8323194302E0018841F4004135
:103D30000180687810B1012828D030E0B4F8500034
:103D40002978204400EBC100B0F80614C1F3090142
:103D5000A0F80614296900F206403E2907D94B094C
:103D6000C90600D15B1E018847EA832307E041B101
:103D70004B08C90700D05B1C018808EA832319435C
:103D800002E0018841F40041018008E0B4F85010DD
:103D90000819297800EBC100298AA0F80614E869FF
:103DA000C0B3297834F82100430401D5430605D473
:103DB00000E046E044F2400318424ED134F82100BE
:103DC000104048F2C002104324F8210045E0A969E0
:103DD0002869814202D9091AA96102E00846C5F89A
:103DE000189013BBB4F850102A78214401EBC2019B
:103DF000B1F80224C2F30902A1F8022401F202413F
:103E00003E2808D94209C30600D1521E0B8847EA52
:103E1000822208E021E078B14208C30700D0521C9A
:103E20000B8808EA822213430B80697800293FF44B
:103E30002EAF012909D010E00A8842F400420A801E
:103E4000F3E700287FF443AF3DE7B4F850201119A1
:103E50002A7801EBC201A1F80604297834F8210080
:103E60004BF68F72104080F4405040EA0A0024F86C
:103E700021000020A8E50021A0F844104BF6807135
:103E8000A0F84010002070470148FCF788BF0000F0
:103E900078040020B0F84400704710B510445C0866
:103EA00000F5806008D030F8022B01F8012B120ACF
:103EB00001F8012B641EF6D1DA0701D000880870E2
:103EC00010BD11B98021A0F84C10002070470000EF
:103ED00010B55B1C10445B0800F580600AD000BF81
:103EE00011F8012B11F8014B42EA042220F8022BB1
:103EF0005B1EF5D110BDFEE7002809DB00F01F02B4
:103F0000012191404009800000F1E020C0F800113B
:103F100070470907090E002804DB00F1E02080F853
:103F20000014704700F00F0000F1E02080F8141D2D
:103F300070470907090E002804DB00F1E02080F833
:103F40000014704700F00F0000F1E02080F8141D0D
:103F50007047B6EE001A90F9001060EE810AF4EE98
:103F6000C00AF1EE10FA08D2491C49B201700A29C0
:103F70000DDD0A21017001207047491E49B26FF022
:103F800009020170914202DA02701011704700209C
:103F90007047000010B5044640F20F114FF0A040EA
:103FA000FDF717F900EE100ADFED0B0A9FED0B1A73
:103FB000B8EE400A0C4860EE200A9FED090A04643E
:103FC00000EE810A9FED071AC0EE010AB3EE041A53
:103FD00080EE810A10BD0000000080393333534069
:103FE0003333D3BF0AD7A33B002C01404FF0A0408E
:103FF00081680E4A1140091D81600168C1F380018A
:104000000029FAD0006CDFED0A0A80B200EE100A37
:10401000B8EE400A20EE200ADFED060A20EE200A64
:10402000DFED050A20EE200A70470000C0FFFF7F89
:104030000000803933335340000000422DE9F0473F
:104040002DED068B9FED908ADFF84082B8F80600D0
:104050004008FFF79FFFA8F11805A5F1280485ED9A
:10406000020A94F91F0001260027042802D0022822
:104070007ED002E1D5ED050A854930EE600A85ED76
:10408000020A94F82000A8B1824A4FF0030A4FF0C8
:1040900006099FED81AAB1EE0C9ADFED809ADFED63
:1040A000808A7A4E483E012813D002286AD003281D
:1040B0000ED1ADE00968B8F806008847E068401CFA
:1040C000A0F5B851E060713902D1E76084F8206052
:1040D000D3E098F804000028B8F8060004D098F857
:1040E000032051F8221003E098F8031052F8211031
:1040F000884785ED040AE068411CE160B8F80810C3
:10410000884209D1E76098F80300401CB0FBF9F23F
:1041100009FB120088F8030094ED050AD6ED010AA8
:1041200008F1010030EE200A86ED010AD5ED010A02
:1041300095ED040AFFF70DFF98F90010C14220D158
:10414000484288F80000D6ED010A8AEE200A80EE87
:10415000891A20EE290A88ED051A86ED018AD8ED24
:10416000040A00EEA80A88ED040A3068401C00E04A
:1041700074E03060322804D1376000F047FC84F8E6
:1041800020A07AE098F804000028B8F8060004D0CF
:1041900098F8032051F8221003E098F8031052F821
:1041A0002110884785ED040A94ED050AD6ED010A31
:1041B00008F1010030EE200A86ED010AD5ED010A72
:1041C00095ED040AFFF7C5FE98F90010C14216D11B
:1041D000484288F80000D6ED010A8AEE200A80EEF7
:1041E000891A20EE290A88ED051A86ED018AD8ED94
:1041F000040A00EEA80A88ED040A84F820A098EDCD
:10420000040A00F03BFCA8F8060000F019FB34E0BB
:10421000D4ED050A96ED010A30EE800A86ED010A1A
:10422000E068401C00EE100AE060B8EE400A20EEA4
:10423000200AD8ED050AB4EEE00AF1EE10FA1CDD12
:10424000E76098F80300401CB0FBF9F209FB12008C
:1042500088F80300022084F820000EE0207F60B977
:10426000E068401CE060652805D00E4901EB800045
:1042700080ED000A01E0E7602677BDEC068BBDE823
:10428000F04700F011B800000000000040020020DC
:104290008C010020A4010020910A863FCDCC4C3D2A
:1042A0003333733FF413002000B587B0182215494B
:1042B0006846FCF798F81448F6EE000A90ED040AF8
:1042C0008DED000AC17800EE101A1821B8EE400AF0
:1042D0008DED010A90F9000000EE100A0B48B8EECF
:1042E000C00A8DED020A90ED010A20EE200A8DED44
:1042F000030A90ED040A68468DED040AFCF746F9BE
:1043000007B000BD184B0008400200202802002022
:104310002DE9F0472A494FF47A742246D1E9000189
:104320000023FBF7E9FF1A4312D126484FF48042DD
:1043300041698A4301F4804142EA01418161416956
:104340004FF400428A4301F4004142EA0141816195
:10435000DFF87490B9F80200B0FBF4F104FB110827
:10436000411CB1FBF4F204FB1216811CB1FBF4F208
:1043700004FB1215C01CB0FBF4F104FB1107134C35
:1043800014F80800532814D1A05D3A2811D1E05D3B
:104390000A280ED1605DF2EE040A00EE100AB8EEB3
:1043A000400A00F049FB0020A05504F80800E05541
:1043B0006055B9F80210491CA9F80210BDE8F08751
:1043C0000002002000080048BC010020240C00204E
:1043D00004494FF400508862034901208862C003F9
:1043E00088617047000800480004004804494FF401
:1043F00000508862034901208861C00388627047C9
:10440000000800480004004804494FF40050886147
:10441000034901208862C003886270470008004891
:10442000000400482DE9F041594CDFF8688100256F
:104430002DED028B04F1280694F91F00401C05287D
:104440005AD2DFE800F003073948530000F0D6F9EC
:10445000E5778FE0FFF7CAFDD4E90001B0EE408AAE
:104460000A220023FBF748FF08EB82000A2180EDB7
:10447000008A4848FDF7B8FD86ED010AD4ED060A2A
:104480009FED451A20EE811AB4EEC10AF1EE10FA42
:1044900010DD9FED421A60EE810AB4EEE00AF1EE03
:1044A00010FA07D2A068411CA160322824D901204B
:1044B000A56009E0A5601FE0A068411CA16032284A
:1044C00004D9E5600220A560E07753E02D2951D999
:1044D00000F086F810E0207FE8B364213048FDF753
:1044E00083FD86ED050A0320A560EDE700F05EF888
:1044F00010B10420E07702E0E07F04283AD100F018
:1045000055F84FF0FF3700B9E777FFF76FFDD4E9B3
:104510000001B0EE408A0A220023FBF7EDFE08EB13
:1045200082000A2180ED008A1A48FDF75DFD86EDC4
:10453000010AD4ED060A9FED1B1A20EE811AB4EE93
:10454000C10AF1EE10FA0AD39FED171A60EE810A44
:10455000B4EEE00A00E00BE0F1EE10FA09DDA0682D
:10456000411CA1608C2805D900F048F9A560E777C7
:1045700000E0A560D4E90001401C41F10001C4E95C
:104580000001BDEC028BBDE8F041FFF7C1BE0000A9
:1045900000020020841500206666663FCDCC8C3F6B
:1045A000F41300209A99593F3333B33F4FF09040B2
:1045B00000694FF0000110F0080F084801D0818019
:1045C00009E08288521C92B28280B2F5967F02D9AD
:1045D000818001210170007870470000BC0100203B
:1045E0000F48002141638163C16301210164416C73
:1045F00041F400414164016A41F001010162016A34
:1046000041F010010162016A41F480710162016AA6
:1046100041F480510162016841F00101016070477D
:10462000002C01400E4910B5486300208863C86320
:10463000FFF7DCFE09214FF0A040FCF7CAFD00EEB9
:10464000100ADFED080AB8EE400A20EE200ADFED7E
:10465000060A20EE200ADFED050A20EE200A10BD32
:10466000002C014000008039333353400080C843A0
:104670000E4910B5486300208863C863FFF7A8FEA1
:1046800040F20F110A48FCF7A4FD00EE100ADFED1E
:10469000090AB8EE400A20EE200ADFED070A20EEF4
:1046A000200ADFED060A20EE200A10BD002C014092
:1046B0000001005000008039333353400080C8436C
:1046C0000E4910B500224A638863CA63FFF79CFE57
:1046D00009214FF0A040FCF77CFD00EE100ADFED51
:1046E000080AB8EE400A20EE200ADFED060A20EEA6
:1046F000200ADFED050A20EE200A10BD002C014043
:1047000000008039333353400080C8430E4910B550
:1047100000224A638863CA63FFF75AFE09210B48E7
:10472000FCF757FD00EE100ADFED090AB8EE400A6B
:1047300020EE200ADFED070A20EE200ADFED060A50
:1047400020EE200A10BD0000002C014000010050A6
:1047500000008039333353400080C8430E4910B500
:1047600000224A638A63C863FFF74EFE40F20F11CE
:104770000A48FCF72EFD00EE100ADFED090AB8EE3C
:10478000400A20EE200ADFED070A20EE200ADFEDC6
:10479000060A20EE200A10BD002C01400001005046
:1047A00000008039333353400080C8430E4910B5B0
:1047B00000224A638A63C863FFF718FE09210B4889
:1047C000FCF707FD00EE100ADFED090AB8EE400A1B
:1047D00020EE200ADFED070A20EE200ADFED060AB0
:1047E00020EE200A10BD0000002C01400001005006
:1047F00000008039333353400080C8430F48002104
:1048000041638163C1630164416C21F400414164EF
:10481000016A21F001010162016A21F010010162C7
:10482000016A21F480710162016A21F48051016200
:10483000016821F00101016070470000002C014077
:10484000154A00B51078002824D0012822D1134B36
:10485000111F93ED050AD1ED000A30EE200A81ED1B
:10486000000A00F01FF8D2ED020A93ED051A00EEDF
:10487000810A00F0D1F892ED030AD1ED000AB4EEFE
:10488000E00AF1EE10FA05D200209FED050A81ED55
:10489000000A107000BD0000C801002000020020C6
:1048A000000000000548F6EE000A9FED051A90EDA5
:1048B0000A0A60EE200A80EE810A7047C8010020D3
:1048C000DA0F4940FBF784FEFDF7E6FE4448016F2E
:1048D00011F4803F19D143498160434981604349C4
:1048E000C1604349C1600169C903FCD4416921F039
:1048F00080414161016F41F480310167416941F4B8
:10490000003141610169C903FCD4FDF7EFF9FCF7FF
:10491000CBFFFDF777F9FDF7BDF9FDF757FAFDF786
:1049200039FBFDF7AFF83348016841F00101016040
:10493000304908310A686FF30B0242F47A620A6068
:10494000416841F001014160001D0168C907FCD1C7
:104950002948016841F0010101604FF0A0447F2126
:104960002046FCF7BBFCA068C00FFCD1234D7F2183
:104970002846FCF7B3FCA868C00FFCD1A16820480A
:10498000014041F00801A160A1680140491CA160FB
:10499000A968014041F00801A960A9680140491CCB
:1049A000A9601848416C41F480514164C16841F0EC
:1049B0000101C160606840F040006060686840F0DC
:1049C0004000686010494FF4804088614FF0E0205B
:1049D000016941F0020101614017FFF78DFAFEE71E
:1049E0000020024023016745AB89EFCD3B2A19081F
:1049F0007F6E5D4C00080050000201400001005035
:104A0000C0FFFF7F002C014000040048014880EDFA
:104A10000A0A7047C8010020F0EE000A054820EE9F
:104A2000200ADFED030A20EE200A80ED0A0A704713
:104A3000DA0F4940C8010020F0EE601A11EE900A2A
:104A40000C4900B5B0EE402A884211DB0A490878CB
:104A500000280DD1C1ED031A81ED012AFFF722FFD5
:104A600032EE400A0120C0EE210AC1ED020A0870B0
:104A700000BD00006F12033AC80100201B481C490A
:104A80001C4AD0ED0A0AD0ED061A30EEC01AD0ED5D
:104A9000080A90ED070A20EE800A01EE210AD1ED06
:104AA000051A41EE210A10EE901AC0ED080A914253
:104AB00003D9FBEE040AC0ED080AD0ED040AF4EEB7
:104AC000C00AF1EE10FA06D3D0ED050AF4EEC00AE2
:104AD000F1EE10FA01DDB0EE600A80ED090ABCEEDD
:104AE000C00A10EE100A80B270470000C801002012
:104AF000000200200000A0C14FF04070E1EE100A5B
:104B00007047000000000404040438380000080066
:104B10000000080000080000000000000000000085
:104B20000000000000000000000000000000807F86
:104B3000504B00080000002058020000140200083A
:104B4000684C000858020020B819000070020008E4
:104B5000321082011324F41395281408C9291B0864
:104B6000D5041AFD0413612A1C08A52704190C4159
:104B700017040309041201140202021640830440C0
:104B8000571D0201020341031A1A03134D051B08A6
:104B900047041A43041A71041A890441130A06329D
:104BA000022A40801C0902434B111DC032090491A6
:104BB0001A020B1305241610010524011009010423
:104BC000240202052406170107058203081C1009A8
:104BD0000481320A1D07050102432C0705810709DC
:104BE00038442A40072A8107112B0907440A3B044D
:104BF0004413012914084D284C08C12AE81AA10CB5
:104C000013C5271B082308C11AE9101ADD041AF579
:104C1000041AD1041325461B0871041B0D473C19C7
:104C2000081A5D081AAD042918290829102918291D
:104C3000202928011D144003461C80F943091993BB
:104C40000328803F20096F12833A18B75138131098
:104C500042840103FF031654012917120114F301C2
:084C6000C7A5D02020020000CE
:04000005080001D915
:00000001FF
